:020000040800F2
:100000008008002065010008FD5200080D36000838
:1000100000000000000000000000000000000000E0
:1000200000000000000000000000000081530008F4
:100030000000000000000000015300088554000883
:1000400077010008770100087701000877010008B0
:1000500077010008770100087701000877010008A0
:100060007701000877010008770100087701000890
:10007000770100087701000877010008BD550008E6
:1000800077010008770100087701000800000000F0
:100090007701000877010008770100087701000860
:1000A0001136000877010008770100087701000881
:1000B0007701000877010008770100087701000840
:1000C00000F002F800F03EF80CA030C80838241800
:1000D0002D18671EA246AB4654465D46AC4201D180
:1000E00000F030F87E460F3EB6460FCC0126334274
:1000F00000D0FB1A3343A246AB4618470863000002
:1001000028630000103A02D378C878C1FAD85207A1
:1001100001D330C830C101D504680C6070470000BD
:100120000023002400250026103A01D378C1FBD813
:10013000520700D330C100D50B6070471FB51FBDFB
:1001400010B510BD00F0DCFA1146FFF7F7FF05F01F
:10015000C3FF00F0F4FA03B4FFF7F2FF03BC00F0B2
:1001600049FB00000748804707480047FEE7FEE7D5
:10017000FEE7FEE7FEE7FEE704480549054A064BB1
:1001800070470000B9550008C10000088002002037
:100190008008002080040020800400204343514355
:1001A00030B55C18010C130C0D4692B25D4380B261
:1001B00051432C19054655430A0C09044D19624157
:1001C0005843010C00044019514130BDFEB50446AE
:1001D00010460D46184373D0A6468C460020A41A3C
:1001E00001469D4167D36646002701243D46B61A65
:1001F0009D4102D313463A462124654676462F0494
:10020000360C3E432D0CB61A9D4104D3150C1B042D
:100210002B4312041034654676462F06360A3E43B9
:100220002D0AB61A9D4104D3150E1B022B43120250
:100230000834654676462F0736093E432D09B61A1F
:100240009D4104D3150F1B012B431201241D65464C
:100250007646AF07B6083E43AD08B61A9D4104D3B3
:10026000950F9B002B439200A41C65467646EF0732
:1002700076083E436D08B61A9D411AD392185B4129
:10028000641C16E00018764665464941B71A9D4140
:100290000191009009D36046B11A98418E46844678
:1002A000009801990025401C6941DD0752082A4346
:1002B0005B08641EE6D57246634603B0F0BDFFE7F7
:1002C0002046284307D00020C0430146C046C04610
:1002D00022462B46F1E700200146F7E701E004C083
:1002E000091F0429FBD28B0701D50280801CC90796
:1002F00000D00270704700290BD0C30702D00270F3
:10030000401C491E022904D3830702D50280801CA9
:10031000891EE3E70022EEE70022DFE7002203095F
:100320008B422CD3030A8B4211D300239C464EE010
:1003300003460B433CD4002243088B4231D30309CC
:100340008B421CD3030A8B4201D394463FE0C3097E
:100350008B4201D3CB01C01A524183098B4201D396
:100360008B01C01A524143098B4201D34B01C01A81
:10037000524103098B4201D30B01C01A5241C308F9
:100380008B4201D3CB00C01A524183088B4201D368
:100390008B00C01A524143088B4201D34B00C01A54
:1003A0005241411A00D201465241104670475DE069
:1003B000CA0F00D04942031000D3404253409C462C
:1003C000002203098B422DD3030A8B4212D38901E9
:1003D000FC2212BA030A8B420CD3890192118B4280
:1003E00008D3890192118B4204D389013AD092112A
:1003F00000E08909C3098B4201D3CB01C01A5241E5
:1004000083098B4201D38B01C01A524143098B42AD
:1004100001D34B01C01A524103098B4201D30B0196
:10042000C01A5241C3088B4201D3CB00C01A5241BB
:1004300083088B4201D38B00C01A5241D9D24308A2
:100440008B4201D34B00C01A5241411A00D20146DF
:100450005241104663465B1001D34042002B00D549
:100460004942704763465B1000D3404201B50549DD
:10047000002802DC491C084000E00846C046C0468F
:1004800002BD00BFFFFFFF7F70477047704700004D
:10049000F0B5FF252D04C609C209FF2704462E40EA
:1004A0000137CB093E4348402A402B400746002AEB
:1004B0006BD0002B69D0AA4267D0AB4265D0002830
:1004C00000DA32460125ED0529432C4309022002BA
:1004D000090AD21A4B0C7F24E31A434C000A7C44CD
:1004E000E35C7D242404121914145B00A2188842D2
:1004F00001D3521C00E0400049420C465C432411E9
:100500005C43DB016415E318040A5C43C502200D5B
:100510000C4644436419250A5D432303EC0C0D4645
:10052000654300030019EB184C42A34201D35B184A
:10053000401CD4052018002B07D05B00C91804D339
:10054000401C002901D1400840003F2189048A4213
:1005500009D3002A08DC1106090F04D0032149073A
:100560004018C00FC007F0BD0122410012068918D3
:100570007F2252069142F6D205214907C84201D591
:100580009010F0BDFF20C005F0BD002F00DA32460C
:100590001648AA4207D2AB4205D21902090E17D05B
:1005A000F80FC007F0BDFF2563002D06AB42F9D858
:1005B0004900A942F6D8AB4201D1A942F2D0A942E2
:1005C00001D1002101E061004908D0050843F0BDD8
:1005D0001102090EFBD0FF200243D005F0BD0A46F0
:1005E0000146104654E70000BE5E00000000C07FD8
:1005F00010B501469E240002CA15A307002A02D0A6
:100600001843002A04DBA21A002A0CDDD04010BDDA
:100610001206120E01D140004008A21A03D4D040A5
:1006200040420028F3DDFF2248001206904201D923
:10063000002010BDC817C043584010BD1F22030C36
:1006400002D10F2200041CD0030E01D10002083A8F
:10065000030F01D10001121F830F01D18000921EF0
:10066000002801DB4000521ED20551180212511819
:100670001922904004D3491C002801D1490849009F
:1006800008467047C10FC90700D0404201229207B7
:100690001143D3E701218907D0E7000010B5FF23FC
:1006A0001B0644009C421DD84C009C421AD80346AD
:1006B000124A0B4307D4401A02D3EFF3008010BD57
:1006C000EFF3008010BD081A03D3EFF300809043CE
:1006D00005E0EFF3008001219043C907084380F350
:1006E000008810BD0D231B041A4204D011460020BF
:1006F00000F02DF810BD00F041F810BD0000009092
:10070000754600F043F8AE46050069465346C008FA
:10071000C000854618B020B5FFF72EFD60BCB64678
:1007200000260027C0C5C0C5C0C5C0C5C0C5C0C55E
:10073000C0C5C0C5403D490849008D46704710B549
:100740000446C046C0462046FFF705FD10BDC8025E
:1007500012D54803400F002804D0C803C04301212C
:1007600088407047EFF3008000010009032109076A
:10077000084380F3008870470020704710B5024896
:1007800000F008F810BD00000000C07F004870476E
:100790002000002010B50C461107090F092904D0CC
:1007A0000A290AD008290CD104E011460820FFF7D5
:1007B000CEFF06E0510606D501E0510601D5012025
:1007C000C007214610BDD10607D501010909CC0893
:1007D0004907000E0006044309E0410F20024907C3
:1007E000000A0143200E00061D22D14101430846A4
:1007F000E7E7000001491820ABBEFEE72600020033
:100800007047000080B584B00390039801900948B8
:1008100000680949FFF782FD019948430290FFE70C
:100820000298002804D0FFE70298401E0290F7E7E4
:1008300004B080BD0800002040420F0080B586B0A3
:100840003C4905910F20800108600120009048601C
:100850003948049000F0F0FA009A0498510200F030
:1008600075FC0099049809020022039200F06EFCC6
:10087000039A04988021019100F068FC039A04987F
:100880004021029100F062FC019B039A04980599B3
:100890000B604A608A6000F0CFFA029B039A0498CA
:1008A00005990B604A608A6000F0C6FA06B080BD08
:1008B00081B0EFF3108072B60090FFE7FEE7000012
:1008C00080B586B01B4905910F208001086001208A
:1008D000009048601848049000F0AEFA009A04981E
:1008E000510200F033FC00990498090201910022A2
:1008F000039200F02BFC039A0498802100F026FC60
:10090000039A04984021029100F020FC019B039A75
:10091000049805990B604A608A6000F08DFA029B8A
:10092000039A049805990B604A608A6000F084FA83
:1009300006B080BD800000200004005080B584B067
:1009400002900191FFE702985021405C012804D1F8
:10095000FFE703A90220087093E0029950220120CA
:100960008854FFE7FFE70298006880680421084088
:10097000800800280FD0FFE70299486D202210431D
:100980004865FFE70299502200208854FFE703A939
:100990000120087075E0019840683C49884234D0D5
:1009A000FFE7019802683B48024002980168886AA4
:1009B0001043886201988078400700280AD5FFE735
:1009C000DF4908680122D205104308600A20FFF7BA
:1009D00019FFFFE7019880788007002807D5FFE717
:1009E000D74908680122920510430860FFE7019883
:1009F0008078C007002807D0FFE7D14908680122A6
:100A0000120610430860FFE731E001980068C24316
:100A10001F48024302980168886A10408862019862
:100A200080784007002807D5FFE7C54908680122FC
:100A3000D20590430860FFE701988078800700287E
:100A400007D5FFE7BE490868012292059043086078
:100A5000FFE701988078C007002807D0FFE7B84972
:100A600008680122120690430860FFE7FFE7FFE7EE
:100A70000299502200208854FFE703A90020087043
:100A8000FFE703A8007804B080BDC0460110000055
:100A90000000F8FFFFFF070080B584B002900298C5
:100AA000002804D1FFE703A90120087043E1029860
:100AB000406D00280AD1FFE702990020886502995D
:100AC00050228854029800F03FF9FFE70298406DE9
:100AD00010210840102809D0FFE7029800688068BC
:100AE00004210840800800280FD0FFE70299486DD4
:100AF000102210434865FFE70299502200208854D5
:100B0000FFE703A90120087015E10298406D02215A
:100B10000843012109028843029948650298006848
:100B200081680320014000200129019005D1FFE7E1
:100B30000298006800680190FFE70198C00700284C
:100B400045D1FFE7FFE70298406803218907884203
:100B50000ED0FFE70298406801218907884207D03C
:100B6000FFE7029840680121C90788420ED1FFE7DC
:100B7000029801680869032292079043086102986D
:100B80004268016808691043086112E00298016830
:100B900008690322920790430861694908680F2297
:100BA0009204904308600298426808681043086005
:100BB000FFE7FFE702980168C86818229043C86001
:100BC000029882680168C8681043C860FFE75C4902
:100BD000086801225206904308600298406B420662
:100BE000086810430860029800688068C000002808
:100BF00008D4FFE7029801688868012212071043B1
:100C00008860FFE702980168C8684E4A1040C860D3
:100C100002980090C2680169891E4B4259418900BF
:100C20000A432021415C49030A432C21415C4900CD
:100C30000A43016B0A43816989030A43C169C903F5
:100C40000A430168C8681043C8600298406AFF21DF
:100C5000C231884209D0FFE70298426A816A0A439A
:100C60000168C8681043C860FFE702982121405C12
:100C700001281AD1FFE702982021405C002808D102
:100C8000FFE702980168C868012212041043C86097
:100C90000AE00299486D2022104348650299886D48
:100CA000012210438865FFE7FFE70298C06B012827
:100CB00018D1FFE7029801680869FF22920090436B
:100CC00008610298026C416C0A43816C0A43016816
:100CD00008691043086102980168086901221043FD
:100CE00008610EE0029800680069C007002807D07C
:100CF000FFE7029801680869012290430861FFE755
:100D0000FFE702980168486907229043486102980A
:100D1000826B016848691043486102990020886528
:100D20000299496D0122114302229143029A5165B1
:100D300003A90870FFE703A8007804B080BDC0468F
:100D4000082701401902FEFF80B588B007900020F7
:100D5000069005900490039002900798006811494E
:100D600088421DD1FFE7EE49086801225202104374
:100D70000860FFE70C48026801210A43026000682E
:100D8000084001900198FFE70220029003200390A1
:100D9000002004900520000702A900F04DF8FFE7AD
:100DA00008B080BD002401402C10024080B582B004
:100DB000019069460020087001982521405C0228B6
:100DC00007D0FFE701990420C86369460120087035
:100DD00026E00198016808680E2290430860019897
:100DE00002681168012081431160019A536C1C2133
:100DF0000B4001469940126C51600199252288549C
:100E0000FFE70199242200208854FFE70198806BB6
:100E1000002804D0FFE70198816B8847FFE7FFE7D0
:100E20006846007802B080BD81B00090009825210E
:100E3000405C01B0704700008CB00B900A9100201C
:100E4000099008900790FFE70A9800680999C84040
:100E5000002800D162E10A980068099A01219140B6
:100E6000084008900898002800D153E10A9840688B
:100E700003210840012807D0FFE70A9840680321B2
:100E8000084002282CD1FFE70B988068079009984A
:100E90004000032181400798884307900A98C16861
:100EA00009984000814007980843079007980B99DC
:100EB00088600B9840680790099801218140079845
:100EC000884307900A984068102108400109099852
:100ED000814007980843079007980B994860FFE7FF
:100EE0000A98406803210840032816D0FFE70B98B2
:100EF000C068079009984000032181400798884303
:100F000007900A9881680998400081400798084333
:100F1000079007980B99C860FFE70A98406803217B
:100F20000840022820D1FFE70B980999C9088900D9
:100F30004018006A079009984007C00E0F218140B1
:100F40000798884307900A98016909984007C00EDE
:100F5000814007980843079007980B99099AD2088F
:100F6000920089180862FFE70B98006807900998BB
:100F70004100032002468A400799914307910A994C
:100F8000496801400998400081400798084307904C
:100F900007980B9908600A9880798007002800D18B
:100FA000B7E05F49086801221043086009980321EF
:100FB00088435C494058079009988007000F0F212B
:100FC00081400798884307900B98052109078842BC
:100FD00003D1FFE70020069038E00B985249884281
:100FE00003D1FFE7012005902DE00B984F4988427F
:100FF00003D1FFE70220049022E00B984C4988427D
:1010000003D1FFE70320039017E00B98494988427A
:1010100003D1FFE7042002900CE00B99464A05201B
:10102000062300939142019001D00098019001980D
:101030000290FFE702980390FFE703980490FFE710
:1010400004980590FFE705980690FFE70699099830
:101050008007000F81400798084307900798099977
:10106000032291432F4A885034480068079008991A
:101070000798884307900A988079C007002805D010
:10108000FFE70899079808430790FFE707982B495F
:1010900008602B48006807900899079888430790D4
:1010A0000A9880798007002805D5FFE708990798F6
:1010B00008430790FFE70798214908602148006826
:1010C000079008990798884307900A988079C00686
:1010D000002805D5FFE70899079808430790FFE720
:1010E00007981849086018480068079008990798F9
:1010F000884307900A9880798006002805D5FFE785
:101100000899079808430790FFE707980E49086079
:10111000FFE7FFE70998401C099095E60CB070477F
:101120003410024008000140000400500008005044
:10113000000C005000100050001C00500004014042
:1011400004040140080401400C04014083B00290F3
:1011500001A80180684602700078002805D0FFE7EA
:1011600001A800880299886104E001A8008802991A
:101170008862FFE703B07047014800687047C046C7
:101180007802002010B583B00190009101984121B0
:10119000405C202839D1FFE7FFE701984021405CFF
:1011A000012804D1FFE702A90220087031E001996B
:1011B000402201208854FFE7FFE7019941222420C3
:1011C00088540198016808680123984308600198D1
:1011D000016808681C03A0430860009C019801682E
:1011E000086820430860019801680868184308608F
:1011F000019920208854FFE701994022002088545B
:10120000FFE702A90020087003E002A9022008708D
:10121000FFE702A8007803B010BD84B002900191EE
:1012200002984121405C20283FD1FFE7FFE7029868
:101230004021405C012804D1FFE703A90220087087
:1012400037E00299402201208854FFE7FFE7029926
:101250004122242088540298016808680123984399
:101260000860029800680068009000980F21090249
:10127000884300900198010200980843009000986C
:1012800002990968086002980168086818430860B4
:10129000029920208854FFE70299402200208854B8
:1012A000FFE703A90020087003E003A902200870EB
:1012B000FFE703A8007804B0704781B0009001B048
:1012C000704783B0029001A801706846028003B0A5
:1012D000704780B584B003900398006880690290DD
:1012E000039800680068019002A84078C0070028B1
:1012F00010D0FFE701A80078C00900280AD0FFE756
:10130000039A516C0120014351640399096800025A
:10131000C861FFE702A8407804210840800800283F
:1013200011D0FFE701A80078C00900280BD0FFE723
:101330000399486C0822104348640398016801200F
:101340008002C861FFE702A84078022108404008F7
:10135000002811D0FFE701A80078C00900280BD0B1
:10136000FFE70399486C0222104348640398016820
:1013700001204002C861FFE70398406C0090684676
:1013800000780B21084205D0FFE70398009902F08E
:1013900005FBFFE704B080BD80B584B003900398DF
:1013A00000688069029003980068006801900398C3
:1013B000406B002806D0FFE70398436B0299019A1F
:1013C0009847FFE704B080BD81B0009001B070473E
:1013D00080B582B000900098002804D1FFE701A9F1
:1013E0000120087074E000984121405C002808D179
:1013F000FFE70099402200208854009800F0BCFBD1
:10140000FFE7009941222420885400980168086869
:10141000012290430860009948680F231B069843F7
:1014200009680861009801688868D2039043886061
:101430000098C068012808D1FFE700998868012258
:10144000D20310430968886007E000998868212268
:101450009202104309688860FFE70098C06802287C
:1014600006D1FFE7009801680120C0024860FFE74D
:10147000009801684868184A10434860009801685D
:10148000C8680122D3039843C860009908694B6972
:1014900018438B691B0218430968C8600099C86922
:1014A0000B6A1843096808600098016808681043CF
:1014B0000860009900204864009A41232021D154FB
:1014C0000099086300994222885401A90870FFE737
:1014D00001A8007802B080BD0080000281B00090B9
:1014E00001B0704781B0009001B0704781B00090AA
:1014F00001B0704780B582B00190019800680E4934
:10150000884217D1FFE70D49487800020978411851
:101510000B4801800021405EFFF7B4F80949FEF74F
:10152000B7FF094904F064FE084908600849022031
:101530000870FFE702B080BD00580040A100002005
:101540007C0200200000F04300002A4270020020CC
:101550009500002081B0009001B07047B0B58AB00E
:10156000044610980F980E9D089407AC218006A998
:101570000A8005A90B8004A9088008984121405CD5
:10158000202800D012E10E98002805D0FFE704A81B
:101590000088002807D1FFE7089A01204102516422
:1015A00009A9087006E1FFE708984021405C01287E
:1015B00004D1FFE709A902200870FBE00899402246
:1015C00001208854FFE7FFE7FFF7D6FD0390089856
:1015D000039900910122D103192303F0C4FB0028D1
:1015E00004D0FFE709A901200870E3E0089941222F
:1015F00022208854089942224020885408990020CB
:1016000048640E99089A51620499089A518508997C
:101610004863089807A9098806AA128805AB1B88A1
:10162000109C039D0195009403F056F800280AD001
:10163000FFE7FFE70899402200208854FFE709A947
:1016400001200870B6E00898408D000A00280FD0ED
:10165000FFE70899FF200885089807A9098828222C
:10166000825CAD4B009301231B0603F02BFB0FE0C4
:101670000898408D08990885089807A909882822A4
:10168000825CA54B009301235B0603F01BFBFFE785
:10169000FFE70898109B039900910421002203F0B2
:1016A00062FB002804D0FFE709A90120087081E04F
:1016B00008980068406A0899496A08700899486A59
:1016C000401C48620899088D401E08850899488D7D
:1016D000401E48850898408D00283AD0FFE70898BA
:1016E000008D002835D1FFE70898109B03990091E1
:1016F0008021002203F037FB002804D0FFE709A96E
:101700000120087056E00898408D000A00280FD08C
:10171000FFE70899FF200885089807A9098828226B
:10172000825C0023009301231B0603F0CBFA0FE039
:101730000898408D08990885089807A909882822E3
:10174000825C0023009301235B0603F0BBFAFFE7F2
:10175000FFE7FFE70898408D00289AD1FFE7089837
:101760001099039A03F046FB002804D0FFE709A96B
:10177000012008701EE0089801682020C8610899BF
:101780000A685168FB4B19405160089941228854FE
:101790000899422200208854FFE70899402200203F
:1017A0008854FFE709A90020087003E009A9022076
:1017B0000870FFE709A800780AB0B0BDB0B58AB0DC
:1017C00004460F980E9D089407AC218006A90A8054
:1017D00005A90B8004A9088008984121405C2028B5
:1017E00000D08DE00E98002805D0FFE704A80088FF
:1017F000002807D1FFE7089A01204102516409A996
:10180000087081E008980068806980B2C00B0128E8
:1018100004D1FFE709A90220087075E0FFE70898E6
:101820004021405C012804D1FFE709A9022008708B
:101830006AE00899402201208854FFE7FFE7FFF79C
:101840009BFC039008994122222088540899422247
:10185000402088540899002048640E9808994862EE
:1018600004980899488508992948C8620899294820
:1018700048630898408D000A002807D0FFE70899C0
:10188000FF20088501200006029007E00898408D9F
:1018900008990885012040060290FFE7089807A9EB
:1018A000098806AA128805AB1B88039C0194192499
:1018B000009402F011FF00280AD0FFE7FFE7089923
:1018C000402200208854FFE709A9012008701BE08E
:1018D000089807A909882822825C029B0E4C009474
:1018E00003F0F0F9FFE70899402200208854FFE751
:1018F0000898022101F026FF09A90020087003E0E2
:1019000009A902200870FFE709A800780AB0B0BD55
:101910000000FFFF3D44000800240080B0B58AB0FD
:10192000044610980F980E9D089407AC218006A9D4
:101930000A8005A90B8004A9088008984121405C11
:10194000202800D00EE10E98002805D0FFE704A85B
:101950000088002807D1FFE7089A0120410251645E
:1019600009A9087002E1FFE708984021405C0128BE
:1019700004D1FFE709A902200870F7E00899402286
:1019800001208854FFE7FFE7FFF7F6FB0390089874
:10199000039900910122D103192303F0E4F90028EF
:1019A00004D0FFE709A901200870DFE0089941226F
:1019B0002120885408994222402088540899002008
:1019C00048640E99089A51620499089A51850899B9
:1019D0004863089807A9098806AA128805AB1B88DE
:1019E000109C039D0195009402F0D2FE00280AD0BD
:1019F000FFE7FFE70899402200208854FFE709A984
:101A000001200870B2E00898408D000A00280FD02D
:101A1000FFE70899FF200885089807A90988282268
:101A2000825C0023009301231B0603F04BF90FE0B7
:101A30000898408D08990885089807A909882822E0
:101A4000825C0023009301235B0603F03BF9FFE770
:101A5000FFE708981099039A03F012FA002804D0BF
:101A6000FFE709A90120087080E00899486A00781A
:101A7000096888620899486A401C48620899488D3C
:101A8000401E48850899088D401E08850898408D9D
:101A900000283AD0FFE70898008D002835D1FFE7ED
:101AA0000898109B039900918021002203F05BF9B4
:101AB000002804D0FFE709A90120087056E0089823
:101AC000408D000A00280FD0FFE70899FF20088505
:101AD000089807A909882822825C00230093012323
:101AE0001B0603F0EFF80FE00898408D0899088571
:101AF000089807A909882822825C00230093012303
:101B00005B0603F0DFF8FFE7FFE7FFE70898408D8B
:101B100000289ED1FFE708981099039A03F06AF90C
:101B2000002804D0FFE709A9012008701EE00898EA
:101B300001682020C86108990A6851680D4B194056
:101B40005160089941228854089942220020885403
:101B5000FFE70899402200208854FFE709A90020E8
:101B6000087003E009A902200870FFE709A80078BF
:101B70000AB0B0BD00E800FE80B58AB00990002030
:101B800008900790069005900490099800681849FD
:101B900088422AD1FFE7FFE71648026802210A437C
:101BA00002600068084003900398FFE70320810269
:101BB00004911221059100210191069107900620C0
:101BC00008900D4804A9FFF737F9019A45490868BC
:101BD00001239B051843086018200290114600F06D
:101BE0008EF8029800F080F8FFE70AB080BDC0468A
:101BF000005800402C1002400004005081B00090BA
:101C000001B0704781B0009001B070472C48027855
:101C100002490868801808607047C04678020020B2
:101C200080B582B001A9002008700A4A11684023DB
:101C30001943116000F010F8002804D0FFE701A953
:101C40000120087002E000F03FF8FFE701A80078EB
:101C500002B080BD0020024080B584B002901748D9
:101C600000680190164801787D20C000FEF756FB01
:101C700001460198FEF752FB01F026F9002804D036
:101C8000FFE703A90120087014E00298032809D88F
:101C9000FFE702990022D04300F031F80298094989
:101CA000086003E003A90120087003E003A90020F5
:101CB0000870FFE703A8007804B080BD080000208A
:101CC0001600002018000020054908680122104372
:101CD0000860D04908681207104308607047C04682
:101CE000341002403810024080B582B0014601A88D
:101CF00001700021405604F097F902B080BD80B514
:101D000084B0034603A8037002910192002140565B
:101D1000029904F09FF904B080BD000080B586B040
:101D2000049001A900200870049800682021084050
:101D3000202806D0FFE7049840780007002800D448
:101D4000F1E0049800788006002801D5FFE7FFE75E
:101D5000049840780007002801D5FFE7FFE7AD4869
:101D60000068C000002809D4FFE7AA4A11680120D2
:101D700003071943116001A90870FFE7A64800682E
:101D8000C00500281DD4FFE7A349086801221202FC
:101D900010430860FFF7F0F90390FFE79E480068E2
:101DA000C00500280CD4FFE7FFF7E6F90399401AB5
:101DB000652804D3FFE705A90320087025E1EDE7B6
:101DC000FFE79648006803210A0510400290029838
:101DD000049949681140884209D1FFE702980499A3
:101DE0008968032212051140884214D0FFE7049845
:101DF000406803210904084088420BD1FFE7874867
:101E000000688003002804D5FFE705A901200870B9
:101E1000FBE0FFE7FFE78248006803210904084070
:101E200002900298002851D0FFE70298049949686F
:101E3000032212041140884207D0FFE7049800688B
:101E40002021084020280FD0FFE7029804998968D4
:101E5000032212041140884238D0FFE704984078EA
:101E60000007002832D5FFE76D49086803221204F5
:101E70009043029008680122D20410430860086869
:101E8000904308600298086002A84078C0070028C4
:101E90001BD0FFE7FFF770F90390FFE76048006889
:101EA000012149020840400A00280DD1FFE7FFF751
:101EB00063F90399401A5C49884204D3FFE705A9F6
:101EC00003200870A1E0E9E7FFE7FFE7FFE7FFE78E
:101ED0000498406803210904084088420BD1FFE7B9
:101EE0004E490868032213059843049A52681A4021
:101EF00080180860FFE7FFE70498426803200004A9
:101F000002404749086810430860FFE701A80078CD
:101F1000012807D1FFE73F490868012212079043D3
:101F20000860FFE7FFE704980078C007002809D0A1
:101F3000FFE73C49086803229043049AD2681043A3
:101F40000860FFE7049800788007002809D5FFE7BC
:101F5000344908680C229043049A126910430860BF
:101F6000FFE704980078400700280AD5FFE72D49CD
:101F70000868032292029043049A52691043086051
:101F8000FFE704980078000700280AD5FFE72549F5
:101F90000868032212039043049A92691043086070
:101FA000FFE704984078C00700280AD0FFE71D49E2
:101FB0000868032212049043049AD269104308600F
:101FC000FFE704980078400600280AD5FFE7154986
:101FD0000868012292069043049A526A10430860EE
:101FE000FFE704980078000600280AD5FFE70D49AE
:101FF0000868032292049043049A126A104308600E
:10200000FFE705A900200870FFE705A8007806B0E3
:1020100080BDC046381002400070004000100240F1
:10202000501002404C1002408913000080B586B069
:10203000049003910498002804D1FFE705A901202A
:10204000087062E10398B34909680122114088428F
:1020500021D9FFE7AF49086801229043039A104352
:102060000860FFF789F80290FFE7AA48006801219D
:102070000840039988420DD0FFE7FFF77DF80299E9
:10208000401AA549884204D3FFE705A90320087038
:102090003BE1EAE7FFE7049800788007002809D5CC
:1020A000FFE7B1490868F0229043049A9268104310
:1020B0000860FFE704980078C007002800D1BCE062
:1020C0000498406802280ED1FFE7F3480068012118
:1020D00049040840400C002804D1FFE705A901206D
:1020E000087012E134E00498406803280ED1FFE73D
:1020F000E9480068012149060840400E002804D143
:10210000FFE705A901200870FFE020E0049840687F
:1021100001280DD1FFE7E04800680421084080084D
:10212000002804D1FFE705A901200870EDE00DE0CB
:10213000D9480068012149020840400A002804D11A
:10214000FFE705A901200870DFE0FFE7FFE7FFE7F1
:10215000CF49086803229043049A526810430860EC
:10216000FFF70AF8029004984068022816D1FFE7AA
:10217000FFE7C74800680C21084008280DD0FFE79A
:10218000FEF7FAFF0299401A6349884204D3FFE739
:1021900005A903200870B8E0EBE74DE0049840681B
:1021A000032816D1FFE7FFE7B94800680C21084073
:1021B0000C280DD0FFE7FEF7DFFF0299401A5649C1
:1021C000884204D3FFE705A9032008709DE0EBE7F0
:1021D00031E004984068012816D1FFE7FFE7AC48DA
:1021E00000680C21084004280DD0FFE7FEF7C4FF6B
:1021F0000299401A4849884204D3FFE705A9032001
:10220000087082E0EBE715E0FFE7A14800680007EF
:10221000800F00280DD0FFE7FEF7AEFF0299401AAD
:102220003D49884204D3FFE705A9032008706CE00C
:10223000EBE7FFE7FFE7FFE7FFE7039835490968AA
:1022400001221140884221D2FFE732490868012269
:102250009043039A10430860FEF78EFF0290FFE759
:102260002C48006801210840039988420DD0FFE7FF
:10227000FEF782FF0299401A2749884204D3FFE7FC
:1022800005A90320087040E0EAE7FFE7049800781A
:10229000400700280AD5FFE77D4908680722120297
:1022A0009043049AD26810430860FFE704980078CE
:1022B000000700280BD5FFE7754908680722D202FE
:1022C0009043049A1269D20010430860FFE700F0BF
:1022D0004FF86F490968C9B20A091049895CC840BA
:1022E000124908600E480068FFF7B6FC014601A8D5
:1022F00001700078002804D0FFE7019805A9087054
:1023000003E005A900200870FFE705A8007806B0E3
:1023100080BDC0460020024089130000E063000831
:1023200018000020014800687047C04608000020DF
:1023300080B5FFF7F7FF56490968072212021140DE
:102340000A0A0A49895CC84080BDC04680B5FFF7CB
:10235000E9FF4F4909680722D2021140CA0A03491E
:10236000895CC84080BDC0460C100240F063000884
:1023700080B58AB046480068099009980C21084049
:1023800003900C2875D80398810001A04058874617
:1023900071240008732400087324000873240008C3
:1023A000C523000873240008732400087324000860
:1023B000DF23000873240008732400087324000836
:1023C000E523000834480068C006002803D5FFE76D
:1023D0003348049002E031480490FFE755E031486B
:1023E000049052E009980F2189040840810C294883
:1023F000405C08900998032189050840800D401C25
:10240000079023480068C00300280DD5FFE708980F
:10241000244A002302931946FDF7C0FE029B079A47
:10242000FDF7D4FE069020E01B480068C006002897
:102430000DD5FFE708981A4A002301931946FDF7C6
:10244000ADFE019B079AFDF7C1FE06900CE00898CF
:10245000124A002300931946FDF7A0FE009B079A3D
:10246000FDF7B4FE0690FFE7FFE7069804900CE046
:10247000FFE70D48006880B2400B05900598411CAD
:1024800001208840C0030490FFE704980AB080BD93
:102490000C100240F8630008001002400024F40011
:1024A00000093D0000127A000410024010B58AB005
:1024B00008900898002805D1FFE709A901200870B5
:1024C00000F015FCFD4801680C22114004910068E1
:1024D000012109040840039008980078C0070028EB
:1024E00000D18DE0049808280AD0FFE704980C2852
:1024F00019D1FFE7039801210904884213D1FFE7AE
:10250000EF480068012149040840400C002809D028
:10251000FFE708984068002804D1FFE709A90120D7
:102520000870E4E36BE0FFE70898406801210904C4
:10253000884207D1FFE7E2490868012212041043EC
:10254000086021E0089840680521090488420BD101
:10255000FFE7DB4908680122930418430860086814
:102560001204104308600EE0D549086801221304E4
:10257000984308600868184002900298086892041E
:1025800090430860FFE7FFE7FFE7089840680028EE
:102590001AD0FFE7FEF7F0FD0790FFE7C848006894
:1025A000012149040840400C00280CD1FFE7FEF748
:1025B000E3FD0799401A652804D3FFE709A9032022
:1025C000087094E3EAE719E0FEF7D6FD0790FFE70D
:1025D000BB480068012149040840400C00280CD089
:1025E000FFE7FEF7C9FD0799401A652804D3FFE706
:1025F00009A9032008707AE3EAE7FFE7FFE7FFE7AE
:10260000089800788007002800D4A8E00898C068DF
:10261000069006A800788006002809D5FFE7A84A9A
:102620001068202108431060069888430690FFE751
:102630000498042808D0FFE704980C2841D1FFE74C
:10264000039800283DD1FFE79D4800680421084019
:102650008008002808D0FFE70698002804D1FFE78B
:1026600009A90120087042E3964908681F22120256
:102670009043089A12691202104308609049086852
:1026800009229043069A10430860FFE7FFF770FEA7
:102690008A490968C9B20A098B49895CC8408B49D3
:1026A00008608B480068FFF7D7FA014605A801705B
:1026B0000078002804D0FFE7059809A9087016E300
:1026C0004CE0069800282AD0FFE77D4908680922D7
:1026D0009043069A10430860FEF74EFD0790FFE70F
:1026E0007748006804210840800800280CD1FFE7E3
:1026F000FEF742FD0799401A032804D3FFE709A912
:1027000003200870F3E2EBE76E4908681F2212020B
:102710009043089A12691202104308601DE068494C
:102720000868012290430860FEF726FD0790FFE746
:102730006348006804210840800800280CD0FFE7A7
:10274000FEF71AFD0799401A032804D3FFE709A9E9
:1027500003200870CBE2EBE7FFE7FFE7FFE708980D
:102760000078C006002800D4A1E00498002845D1D4
:10277000FFE753480068012149020840400A002849
:1027800009D0FFE70898C069002804D1FFE709A92C
:1027900001200870ABE24B490868072252039043BE
:1027A000089A526A104308600868FF221206904394
:1027B000089A126A1206801808600898406A400B4E
:1027C000411C01208840C0033C490968C9B20A097C
:1027D0003D49895CC8403D4908603D480068FFF7B5
:1027E0003BFA014605A801700078002804D0FFE7F5
:1027F000059809A908707AE2FFE757E00898C069D0
:10280000002832D0FFE72E49086801221202104347
:102810000860FEF7B1FC0790FFE729480068012136
:1028200049020840400A00280CD1FFE7FEF7A4FC4B
:102830000799401A032804D3FFE709A90320087069
:1028400055E2EAE71F490868072252039043089AB5
:10285000526A104308600868FF2212069043089AE3
:10286000126A1206801808601FE0154908680122E4
:10287000120290430860FEF77FFC0790FFE71048C4
:102880000068012149020840400A00280CD0FFE7F7
:10289000FEF772FC0799401A032804D3FFE709A941
:1028A0000320087023E2EAE7FFE7FFE7FFE7089865
:1028B0000078000700284FD50CE0C0460C100240FD
:1028C0000010024004100240E063000808000020ED
:1028D000180000200898406900281ED0FFE7FD4935
:1028E0000868012210430860FEF746FC0790FFE7E6
:1028F000F848006802210840400800280CD1FFE792
:10290000FEF73AFC0799401A032804D3FFE709A908
:1029100003200870EBE1EBE71DE0F94908680122AC
:1029200090430860FEF728FC0790FFE7F448006832
:1029300002210840400800280CD0FFE7FEF71CFCED
:102940000799401A032804D3FFE709A90320087058
:10295000CDE1EBE7FFE7FFE70898007840070028A4
:1029600000D4BBE001A900200870E6480068C00060
:10297000002809D4FFE7E34A11680120030719433F
:10298000116001A90870FFE7DF480068C005002852
:102990001DD4FFE7DC4908680122120210430860D9
:1029A000FEF7EAFB0790FFE7D7480068C00500285C
:1029B0000CD4FFE7FEF7E0FB0799401A652804D323
:1029C000FFE709A90320087091E1EDE7FFE7FFE7C2
:1029D0000898806801210902884207D1FFE7C849A9
:1029E000086801221202104308602EE008988068EF
:1029F00000280BD1FFE7C24908680122130298435F
:102A0000086008689202904308601DE0089880689A
:102A10000521090288420BD1FFE7B9490868012264
:102A200093021843086008681202104308600AE025
:102A3000B3490868012213029843086008689202AB
:102A400090430860FFE7FFE7FFE7FFE7089880682B
:102A500000281BD0FFE7FEF78FFB0790FFE7A84891
:102A60000068012149020840400A00280DD1FFE713
:102A7000FEF782FB0799401AA449884204D3FFE776
:102A800009A90320087032E1E9E71AE0FEF774FBB8
:102A90000790FFE79A480068012149020840400A70
:102AA00000280DD0FFE7FEF767FB0799401A97490A
:102AB000884204D3FFE709A90320087017E1E9E77A
:102AC000FFE701A80078012807D1FFE78D490868D2
:102AD0000122120790430860FFE7FFE7089800789B
:102AE0008006002854D5FFE708988069002829D07F
:102AF000FFE7FFE786490868012210430860EF49B5
:102B0000086810430860834908685203104308604E
:102B1000FFE7FEF731FB0790FFE77D4800680221E1
:102B20000840400800280CD1FFE7FEF725FB079975
:102B3000401A032804D3FFE709A903200870D6E050
:102B4000EBE724E0FFE77249086801229043086040
:102B500070490868520390430860FFE7FEF70CFBDA
:102B60000790FFE76A4800680221084040080028F3
:102B70000CD0FFE7FEF700FB0799401A032804D3A7
:102B8000FFE709A903200870B1E0EBE7FFE7FFE7E3
:102B90000898806A002800D1A5E004980C2872D01B
:102BA000FFE70898806A02284CD1FFE7534908687C
:102BB0000122120690430860FEF7DEFA0790FFE755
:102BC0004E480068012149060840400E00280CD0FC
:102BD000FFE7FEF7D1FA0799401A032804D3FFE76D
:102BE00009A90320087082E0EAE743490868FD224A
:102BF00012049043089BDA6A1C6B22435B6B1A43F6
:102C0000104308603D49086801221206104308601D
:102C1000FEF7B2FA0790FFE738480068012149063D
:102C20000840400E00280CD1FFE7FEF7A5FA0799EF
:102C3000401A032804D3FFE709A90320087056E0CF
:102C4000EAE71FE02D490868012212069043086058
:102C5000FEF792FA0790FFE728480068012149062D
:102C60000840400E00280CD0FFE7FEF785FA0799D0
:102C7000401A032804D3FFE709A90320087036E0AF
:102C8000EAE7FFE72EE00898806A012804D1FFE711
:102C900009A9012008702AE01748006803900398EA
:102CA0000121090408400899C96A884214D1FFE744
:102CB00003980F21890408400899096B88420BD1B9
:102CC000FFE703980321890508400899496B88426A
:102CD00006D001E05010024009A90120087006E06A
:102CE000FFE7FFE7FFE709A900200870FFE709A851
:102CF00000780AB010BDC0460C100240001002401F
:102D0000501002403810024000700040891300004B
:102D1000081002402000014070B584B00290029873
:102D2000002804D1FFE703A90120087071E0029890
:102D3000406A00280DD1FFE70298406841218900D0
:102D4000884201D1FFE703E002990020C861FFE754
:102D500005E002990020086102994861FFE70299A5
:102D60000020886202985121405C002808D1FFE7CA
:102D70000299502200208854029800F04FF8FFE793
:102D8000029851230226C65402980168086840221E
:102D900090430860029A01925068412189000840DE
:102DA00091682124A40221404018D5680121CC0259
:102DB0002540401915693540401955690D404019A5
:102DC00095694E0235404019D5693826354040197D
:102DD000156A802635402843956A4E0335402843BE
:102DE00012681060029A508B04252840556A1026FC
:102DF000354040191268506002980268D069A043BB
:102E0000D061029A00205065029AD15403A908703B
:102E1000FFE703A8007804B070BD000010B58CB0C7
:102E20000B9000200A9009900890079006900B984C
:102E30000068214988423CD1FFE720490868012207
:102E4000120310430860FFE71D48026801210A438E
:102E500002600068084005900598FFE7FFE7184802
:102E6000026802210A430260006808400490049846
:102E7000FFE7C020069002200090079000200290FB
:102E800008900321019109910A900520000706A9E5
:102E90000391FDF7D1FF009B019A02980399082442
:102EA00006940793089009920A900648FDF7C4FF1C
:102EB000FFE70CB010BDC0460030014034100240A6
:102EC0002C1002400004005080B582B0019001989F
:102ED00002F0B0FA02B080BD85B003900291FFE726
:102EE00003983821405C012804D1FFE704A902209F
:102EF000087053E00399382201208854FFE7FFE768
:102F00000399392202208854039800684068019090
:102F100003980068806800900198702188430190B0
:102F20000298016801980843019001980399096883
:102F300048600398006801218907884212D0FFE7A2
:102F4000039800686E4988420CD0FFE70398006838
:102F50006C49884206D0FFE7039800686A498842B6
:102F60000ED1FFE7009880218843009002984168C5
:102F70000098084300900098039909688860FFE76B
:102F80000399392201208854FFE703993822002051
:102F90008854FFE704A900200870FFE704A8007820
:102FA00005B0704780B582B000900098002804D129
:102FB000FFE701A90120087030E000983921405C4A
:102FC000002808D1FFE70099382200208854009893
:102FD00000F028F8FFE70099392202208854009970
:102FE00001C902F0F3FA00993E2201208854FFE75C
:102FF00000993A220120885400993B228854009974
:103000003C22885400993D228854FFE700993922D8
:103010000120885401A900200870FFE701A800786A
:1030200002B080BD80B582B0019001980068012196
:10303000890788420FD1FFE7084908680122104339
:1030400008600F20009000221146FEF758FE0098FD
:10305000FEF74AFEFFE702B080BDC04638100240CE
:1030600083B0019001983921405C012804D0FFE72A
:1030700002A9012008703EE00199392202208854FB
:1030800001980268D06801210843D0600198006867
:103090008907884212D0FFE70198006818498842E2
:1030A0000CD0FFE7019800681649884206D0FFE778
:1030B000019800681449884212D1FFE7019800681E
:1030C00080680721084000900098062807D0FFE795
:1030D000019801680868012210430860FFE706E0D4
:1030E000019801680868012210430860FFE702A9FF
:1030F00000200870FFE702A8007803B07047C046C0
:1031000000040040000801400014014080B586B072
:103110000490039102A900200870FFE70498382169
:10312000405C012804D1FFE705A902200870AEE049
:103130000499382201208854FFE7FFE704993922D7
:1031400002208854049800688068019001987721D3
:10315000884301900198FF2109028843019001985A
:10316000049909688860039800680090002875D069
:10317000FFE70098102871D0FFE7009820286DD055
:10318000FFE70098302869D0FFE70098402858D022
:10319000FFE7009850283AD0FFE70098602843D016
:1031A000FFE7009870280DD0FFE700980121090380
:1031B000884206D0FFE7009801214903884216D0D3
:1031C00053E056E004980068039B99685A68DB68EE
:1031D00002F05EFA049800688068019001987721F7
:1031E00008430190019804990968886041E00498B7
:1031F0000068039B99685A68DB6802F049FA0498F2
:1032000001688868012292031043886031E00498C5
:103210000068039A5168D26802F06AFA049800685C
:10322000502102F050FA24E004980068039A516893
:10323000D26802F085FA04980068602102F043FA2F
:1032400017E004980068039A5168D26802F050FAB7
:1032500004980068402102F036FA0AE004980068F9
:103260000399096802F02FFA03E002A9012008700F
:10327000FFE70499392201208854FFE70499382296
:1032800000208854FFE7029805A90870FFE705A809
:10329000007806B080BD81B0009001B0704780B565
:1032A00082B001900198006800690221084040083E
:1032B000002828D0FFE701980068C0680221084074
:1032C000400800281ED0FFE7019801680220C04393
:1032D00008610199012008760198006880698007DB
:1032E000002804D0FFE70198FFF7D5FF06E001981A
:1032F00000F0D4F8019800F0D5F8FFE7019900201C
:103300000876FFE7FFE7019800680069042108409C
:103310008008002829D0FFE701980068C0680421D0
:103320000840800800281FD0FFE7019801680420AA
:10333000C0430861019902200876019800688069FD
:103340008005800F002804D0FFE70198FFF7A3FF56
:1033500006E0019800F0A2F8019800F0A3F8FFE75A
:10336000019900200876FFE7FFE7019800680069EF
:1033700008210840C008002828D0FFE7019800680D
:10338000C06808210840C00800281ED0FFE7019847
:1033900001680820C043086101990420087601985B
:1033A0000068C0698007002804D0FFE70198FFF794
:1033B00072FF06E0019800F071F8019800F072F8D1
:1033C000FFE7019900200876FFE7FFE70198006812
:1033D0000069102108400009002829D0FFE7019862
:1033E0000068C06810210840000900281FD0FFE7CE
:1033F000019801681020C0430861019908200876EF
:1034000001980068C0698005800F002804D0FFE79C
:103410000198FFF740FF06E0019800F03FF801989F
:1034200000F040F8FFE7019900200876FFE7FFE78A
:10343000019800680069C007002811D0FFE70198D3
:103440000068C068C007002809D0FFE7019801683C
:103450000120C0430861019800F028F8FFE7FFE76A
:10346000019800680069402108408009002813D0B5
:10347000FFE701980068C0684021084080090028E3
:1034800009D0FFE7019801684020C0430861019816
:1034900000F028F8FFE7FFE702B080BD81B00090A0
:1034A00001B0704781B0009001B0704780B582B024
:1034B0000190019800680121890788420DD1FFE73A
:1034C00007480078002807D1FFE75A4801F05AFD65
:1034D000034901200870FFE7FFE702B080BDC04646
:1034E0009500002081B0009001B0704780B582B097
:1034F00000900098002804D1FFE701A9012008707E
:1035000048E000988069002801D0FFE700E0FFE76D
:103510000098806F002808D1FFE7009974220020EE
:103520008854009800F03AF8FFE700992420886753
:10353000009801680868012290430860009802F032
:1035400029FA012804D1FFE701A90120087021E030
:103550000098406A002804D0FFE7009802F01AF9AA
:10356000FFE70098016848680922D202904348604A
:103570000098016888682A22904388600098016852
:103580000868012210430860009802F0B1F901A90F
:103590000870FFE701A8007802B080BD80B588B050
:1035A00007900020069005900490039002900798E1
:1035B00000681349884221D1FFE7124908680122B7
:1035C000520410430860FFE70F48026801210A43D4
:1035D00002600068084001900198FFE70C2002900B
:1035E0000220039000200490032005900420069000
:1035F0000520000702A9FDF71FFCFFE708B080BD0A
:1036000000440040381002402C100240FFE7FEE763
:1036100080B50848006880694005400F002804D044
:10362000FFE70448FDF755FE03E00248FDF7B4FE4E
:10363000FFE780BD0801002080B582B001900198AD
:10364000806A00900098806B002805D0FFE7009802
:10365000816B00208863FFE70098C06B002805D0CD
:10366000FFE70098C16B00208863FFE7009801F036
:1036700051FB02B080BD83B0029001A801800021FF
:1036800000910088C007002812D0FFE7009842216F
:103690000843009002984121405C282108402828D6
:1036A00005D0FFE70098B02108430090FFE7FFE74F
:1036B00001A800888007002812D5FFE70098442160
:1036C0000843009002984121405C282108402828A6
:1036D00005D0FFE70098B02108430090FFE7FFE71F
:1036E00001A800880004002805D5FFE70098B8214C
:1036F00008430090FFE701A80088102805D1FFE7E4
:103700000098902108430090FFE701A80088202836
:1037100005D1FFE70098202108430090FFE701A8AA
:103720000088402805D1FFE7009840210843009019
:10373000FFE7009A0298016808689043086003B0A8
:103740007047000083B0029001A801800020009023
:103750000298406B3349884206D0FFE70298406BDD
:10376000314988422AD1FFE701A8008800040028D7
:1037700005D5FFE70098B82108430090FFE701A8AE
:103780000088102805D1FFE7009890210843009099
:10379000FFE701A80088202805D1FFE700986021F5
:1037A00008430090FFE701A80088402805D1FFE703
:1037B0000098402108430090FFE72BE001A8008813
:1037C0000004002805D5FFE70098B82108430090C1
:1037D000FFE701A80088C007002805D0FFE7009890
:1037E000F22108430090FFE701A800888007002825
:1037F00005D5FFE70098F42108430090FFE701A8F2
:103800000088202805D1FFE7009820210843009078
:10381000FFE7FFE7009A0298016808681043086014
:1038200003B07047194200084D48000881B000906D
:10383000009800688069022108404008002805D0EF
:10384000FFE70098016800208862FFE700980068A1
:103850008069C007002807D1FFE7009801688869E0
:10386000012210438861FFE701B0704780B586B040
:103870000590049105984121405C282108402828A2
:103880007CD1FFE7059800688069012109040840A0
:10389000000C03A908700598006880697F2149041D
:1038A0000840000C02A908800598006880683A4921
:1038B000084001A9088005980068C068FE210840FA
:1038C000694608800598C068022843D1FFE702A82E
:1038D0000088062210400199C9091140884222D16E
:1038E000FFE7019802A908800599886C401C88644C
:1038F0000598806C022815D1FFE70599002088649F
:10390000059801680820C861FFE70599402200205A
:103910008854FFE7059803A9097802AA1288FDF7E1
:10392000D0FCFFE715E0009802A908800598012166
:10393000C903FFF7A0FEFFE7059940220020885445
:10394000FFE7059803A9097802AA1288FDF7B9FCD8
:10395000FFE712E005980121C903FFF78CFEFFE79E
:103960000599402200208854FFE7059803A90978AB
:1039700002AA1288FDF7A5FCFFE70AE00598016896
:103980000820C861FFE70599402200208854FFE71E
:10399000FFE706B080BDC046FF03000080B584B0DD
:1039A0000390029103984121415C01A80170039AA0
:1039B00042230021D154039BF34ADA62039A5185D2
:1039C000029B039A516C19435164007828280AD04D
:1039D000FFE701A80078292805D0FFE701A80078B3
:1039E0002A280CD1FFE703980321FFF744FE03992F
:1039F00041222820885403994E48486312E00398D6
:103A00007449FFF738FE03984121405C602805D0D7
:103A1000FFE70399412220208854FFE70399002003
:103A20004863FFE70398006B00900398806B0028C1
:103A30003AD0FFE70098112804D0FFE7009821282A
:103A400032D1FFE70398006800684004002808D5D9
:103A5000FFE7039801680868012292039043086019
:103A6000FFE70398806BFDF7DFF9012817D0FFE728
:103A70000398816B30488863FFE703994022002058
:103A80008854FFE70398806BFDF790F9002805D074
:103A9000FFE70398806B816B8847FFE703E003989B
:103AA00001F038F9FFE743E00398C06B00283AD0F3
:103AB000FFE70098122804D0FFE70098222832D1AF
:103AC000FFE70398006800680004002808D5FFE7B6
:103AD0000398016808680122D20390430860FFE759
:103AE0000398C06BFDF7A0F9012817D0FFE70398F2
:103AF000C16B11488863FFE7039940220020885476
:103B0000FFE70398C06BFDF751F9002805D0FFE7E8
:103B10000398C06B816B8847FFE703E0039801F0CF
:103B2000F9F8FFE703E0039801F0F4F8FFE7FFE797
:103B300004B080BD7D4A00083936000880B582B0E7
:103B40000190009101999048C86201990020086392
:103B5000019A41232021D15401994222885401998C
:103B600048636846007804210840800800281ED079
:103B7000FFE701980068406A0199496A0870019955
:103B8000486A401C48620198008D00280ED0FFE76B
:103B90000199088D401E08850199488D401E488571
:103BA0000199486C042210434864FFE7FFE701983D
:103BB0000849FFF760FD019801681020C861FFE720
:103BC0000199402200208854FFE70198FDF786FC08
:103BD00002B080BD0380000080B586B005900491DE
:103BE00004980290059801682020C8610598412139
:103BF000405C212808D1FFE705980121FFF73BFD34
:103C00000599112008630FE005984121405C2228A6
:103C100008D1FFE705980221FFF72DFD0599122035
:103C2000086300E0FFE7FFE7059801684868554A28
:103C30001040486005990020486305995248C862C1
:103C400002A8007810210840000900280AD0FFE7E8
:103C5000059801681020C8610599486C042210433A
:103C60004864FFE705984121405C60280FD1FFE7D9
:103C700002A80078042108408008002807D0FFE748
:103C800005980068406AC0B201900198FFE7059866
:103C9000FFF7CCFD0598406C039005984121405CEE
:103CA000602804D0FFE70398002805D0FFE70598B7
:103CB000416CFFF773FE62E005984121405C2128CA
:103CC0002AD1FFE705994122202088540599002038
:103CD000086305984221405C40280ED1FFE7059912
:103CE000422200208854FFE7059940220020885492
:103CF000FFE70598FDF72EFC0DE005994222002014
:103D00008854FFE70599402200208854FFE7059872
:103D1000FDF7ECFBFFE731E005984121405C2228EC
:103D20002AD1FFE7059941222020885405990020D7
:103D3000086305984221405C40280ED1FFE70599B1
:103D4000422200208854FFE7059940220020885431
:103D5000FFE70598FDF7CEFB0DE005994222002014
:103D60008854FFE70599402200208854FFE7059812
:103D7000FDF7B8FBFFE700E0FFE7FFE7FFE706B06E
:103D800080BDC04600E800FE0000FFFF80B582B0A5
:103D90000190019942220020885401984121405C01
:103DA000212818D1FFE70199412220208854019948
:103DB0001120086301990020486301980121FFF751
:103DC0005AFCFFE70199402200208854FFE7019840
:103DD000FDF78CFB17E001994122202088540199BE
:103DE0001220086301990020486301980221FFF71F
:103DF00042FCFFE70199402200208854FFE7019828
:103E0000FDF770FBFFE702B080BD000080B586B013
:103E1000059004910598006800680390049802904A
:103E200005984121415C01A8017005990A6820218B
:103E3000D1610078212805D0FFE701A80078292862
:103E400008D1FFE705987C49FFF715FC059921206B
:103E5000086313E001A80078222805D0FFE701A835
:103E600000782A2808D1FFE705987249FFF703FC7C
:103E700005992220086300E0FFE7FFE70598016845
:103E800048680122D20310434860059801684868D9
:103E9000E04A104048600598FFF7C8FC03A8407846
:103EA000402108408009002814D0FFE705980168E8
:103EB000086801229203904308600598806B0028EF
:103EC00007D0FFE70598806B006840680599488532
:103ED000FFE71BE003A84078C009002814D0FFE7E3
:103EE0000598016808680122D2039043086005988C
:103EF000C06B002807D0FFE70598C06B00684068DA
:103F000005994885FFE700E0FFE7FFE702A8007892
:103F100004210840800800281DD0FFE702980421F2
:103F20008843029005980068406A0599496A0870BC
:103F30000599486A401C48620598008D002809D000
:103F4000FFE70599088D401E08850599488D401E9C
:103F50004885FFE7FFE70598408D002806D0FFE77A
:103F60000599486C042210434864FFE705994222F2
:103F700000208854059948630598406C002810D0AB
:103F8000FFE70598416CFFF709FD05984121405C6A
:103F9000282805D1FFE705980299FFF7CFFDFFE735
:103FA00046E00598C06A2549884217D0FFE7059882
:103FB00000F046F805992148C86205994122202061
:103FC0008854059900200863FFE7059940220020E6
:103FD0008854FFE70598FDF781FA28E0059841210C
:103FE000405C222811D1FFE7059941222020885406
:103FF000059900200863FFE70599402200208854B6
:10400000FFE70598FDF7FAFD10E005994122202011
:104010008854059900200863FFE705994022002095
:104020008854FFE70598FDF7EDFDFFE7FFE7FFE7A1
:1040300006B080BD02800000018000000000FFFF8C
:1040400080B582B0019001980068006800900199E5
:104050004222002088546846407840210840800968
:10406000002808D0FFE70198016808680122920340
:10407000904308600FE068464078C009002808D0E7
:10408000FFE70198016808680122D20390430860A5
:1040900000E0FFE7FFE701984121405C292815D1A6
:1040A000FFE70199412228208854019921200863C3
:1040B00001980121FFF7DFFAFFE701994022002074
:1040C0008854FFE70198FDF79DFD1CE00198412110
:1040D000405C2A2815D1FFE7019941222820885405
:1040E00001992220086301980221FFF7C4FAFFE733
:1040F0000199402200208854FFE70198FDF77EFDDA
:1041000000E0FFE7FFE702B080BD000080B586B0A9
:10411000049003910292049800688069102108407D
:10412000000901286DD1FFE704980068406801216B
:1041300049060840884208D0FFE7049801684868AB
:104140000122920310434860FFE7FFE704980068EC
:104150008069202108404009002829D1FFE7039801
:10416000401C002823D0FFE7FDF706F80299401A0B
:104170000399884204D8FFE70398002816D1FFE787
:10418000049A516C202001435164049941228854BF
:104190000499422200208854FFE70499402200201D
:1041A0008854FFE705A9012008702EE0FFE7CDE75E
:1041B000049801681020C8610498016820200190CB
:1041C000C8610498FFF732FB019804990A685168A6
:1041D000104B19405160049A516C042319435164E7
:1041E0000499412288540499422200208854FFE710
:1041F0000499402200208854FFE705A90120087097
:1042000003E005A900200870FFE705A8007806B0C4
:1042100080BDC04600E800FE10B588B0069005914C
:104220000492FFE706984021405C012804D1FFE793
:1042300007A902200870FBE006994022012088545B
:10424000FFE7FFE705A800781021084000090028D3
:1042500019D0FFE704A800781021084000090028C1
:1042600011D0FFE7069801681020C8610699486CD4
:1042700004221043486406982021FFF763FA069849
:10428000FFF7D4FACAE005A80078C009002874D066
:10429000FFE704A8007840210840800900286CD07E
:1042A000FFE7069801680868402290430860069876
:1042B000408D00284DD0FFE70698006840685E49B1
:1042C000084003A908800698408D000A002807D0FE
:1042D000FFE70699FF20088501200006029012E002
:1042E0000698408D069908850698C06AF849884264
:1042F00004D0FFE70698C06A029003E00120400660
:104300000290FFE7FFE7069803A909882822825C4C
:10431000029B0024009400F0D5FC06990A8D488D7C
:10432000801A488506984121405C222808D1FFE781
:104330000698016808680122D2031043086007E06C
:104340000698016808680122920310430860FFE79D
:1043500012E006980068406801214906084088423A
:1043600004D0FFE70698FFF711FD04E0069840210E
:10437000FFF714FBFFE7FFE74FE005A800784021B7
:1043800008408009002830D0FFE704A800784021C9
:1043900008408009002828D0FFE70698408D0028B3
:1043A0001DD1FFE7069800684068012149060840D2
:1043B000884213D0FFE70698C06AC549884208D1F1
:1043C000FFE706980168486801229203104348609D
:1043D00003E00698FFF7DAFCFFE7FFE704E0069842
:1043E0004021FFF7DBFAFFE716E005A8007820215F
:1043F0000840400900280DD0FFE704A800782021DC
:1044000008404009002805D0FFE706980599FFF706
:10441000E3FB00E0FFE7FFE7FFE7FFE7FFE70699C1
:10442000402200208854FFE707A900200870FFE71A
:1044300007A8007808B010BDFF03000010B588B0D1
:1044400006900591049205980290FFE70698402196
:10445000405C012804D1FFE707A90220087032E17F
:104460000699402201208854FFE7FFE702A8007860
:10447000102108400009002815D0FFE704A80078A3
:1044800010210840000900280DD0FFE706980168B8
:104490001020C8610699486C0422104348640698AD
:1044A000FFF7C4F9F0E002A8007804210840800872
:1044B00000281FD0FFE704A80078042108408008E6
:1044C000002817D0FFE7029804218843029006983D
:1044D0000068406A0699496A08700699486A401C53
:1044E00048620699088D401E08850699488D401E31
:1044F0004885C8E002A8007802210840400800284A
:104500001AD0FFE704A800780221084040080028DC
:1045100012D0FFE70699486A007809688862069910
:10452000486A401C48620699088D401E0885069915
:10453000488D401E4885A5E002A80078C0090028E3
:1045400065D0FFE704A800784021084080090028D2
:104550005DD0FFE70698408D002844D0FFE706981D
:10456000008D00283FD1FFE7069800684068594950
:10457000084003A908800698408D000A00280FD043
:10458000FFE70699FF200885069803A909882822D5
:10459000825C0023009301231B0600F093FB21E0C3
:1045A0000698408D069908850698C06A4849884251
:1045B0000BD0FFE7069803A909882822825CC36A0A
:1045C0000024009400F07EFB0BE0069803A9098804
:1045D0002822825C0023009301235B0600F072FB1B
:1045E000FFE7FFE712E006980068406801214906EE
:1045F0000840884204D0FFE70698FFF7C7FB04E0B5
:1046000006984021FFF7CAF9FFE7FFE739E002A863
:104610000078402108408009002830D0FFE704A836
:104620000078402108408009002828D0FFE706983C
:10463000408D00281DD1FFE70698006840680121E1
:1046400049060840884213D0FFE70698C06A20490F
:10465000884208D1FFE70698016848680122920362
:104660001043486003E00698FFF790FBFFE7FFE781
:1046700004E006984021FFF791F9FFE700E0FFE72B
:10468000FFE7FFE7FFE7FFE702A8007820210840E7
:10469000400900280DD0FFE704A800782021084039
:1046A0004009002805D0FFE706980299FFF794FA21
:1046B000FFE7FFE70699402200208854FFE707A99B
:1046C00000200870FFE707A8007808B010BDC046BA
:1046D0000000FFFFFF03000010B588B00291014603
:1046E00002980B9C0A9C069105A9088004A80280E8
:1046F00003AA1380069809881278534B009300236D
:1047000000F0E0FA06980A990B9A00F0B9FB00282D
:1047100004D0FFE707A90120087034E003A800884F
:10472000012806D1FFE704A8007806990968886285
:1047300016E004A8407806990968886206980A99E4
:104740000B9A00F09DFB002804D0FFE707A9012089
:10475000087018E004A80078069909688862FFE7E5
:1047600006980A9B0B9900914021002200F0FBFA69
:10477000002804D0FFE707A90120087003E007A97B
:1047800000200870FFE707A8007808B010BDC046F9
:1047900010B588B00291014602980B9C0A9C0691C4
:1047A00005A9088004A8028003AA13800698098836
:1047B0001278254B009301231B0600F083FA06981C
:1047C0000A990B9A00F05CFB002804D0FFE707A9C8
:1047D0000120087034E003A80088012806D1FFE713
:1047E00004A8007806990968886216E004A8407851
:1047F00006990968886206980A990B9A00F040FBAE
:10480000002804D0FFE707A90120087018E004A8D9
:104810000078069909688862FFE706980A9B0B9959
:1048200000918021002200F09EFA002804D0FFE7CA
:1048300007A90120087003E007A900200870FFE71E
:1048400007A8007808B010BD0020008080B588B0AF
:104850000690059104920698C06A03900020029089
:10486000FFE706984021405C012804D1FFE707A933
:1048700002200870FEE00699402201208854FFE7DC
:10488000FFE705A8007820210840400900280DD046
:10489000FFE704A80078202108404009002805D03F
:1048A000FFE706980599FFF7B1FAFFE705A800783A
:1048B000102108400009002800D1BAE004A80078BF
:1048C000102108400009002800D1B2E004A8407877
:1048D000402108408009002806D1FFE704A840785D
:1048E000C009002800D19EE00698C06B002812D0B5
:1048F000FFE704A84078C00900280BD0FFE706981E
:10490000C06B00684068002803D1FFE701200290D7
:10491000FFE7FFE7FFE70698806B002814D0FFE76A
:1049200004A8407840210840800900280BD0FFE708
:104930000698806B00684068002803D1FFE70120DB
:104940000290FFE7FFE7FFE7029801282ED1FFE77B
:1049500006984121405C28280BD1FFE703980121EC
:104960004906884205D1FFE706980599FFF7E6F862
:104970001BE006984121405C292810D1FFE70398ED
:10498000CF4988420BD0FFE7069801681020C86124
:104990000698FEF74BFF0698FFF752FB04E00698D7
:1049A00001681020C861FFE7FFE73BE00698016857
:1049B0001020C8610699486C042210434864069888
:1049C0004121405C01A908700398002806D0FFE748
:1049D000039801210906884223D1FFE701A8007846
:1049E000212805D0FFE701A80078292804D1FFE796
:1049F0000699212008630FE001A80078222805D03D
:104A0000FFE701A800782A2804D1FFE706992220B1
:104A1000086300E0FFE7FFE70698416CFEF7BEFF82
:104A2000FFE7FFE704E0069801681020C861FFE790
:104A300016E005A8007808210840C00800280DD01D
:104A4000FFE704A8007808210840C008002805D026
:104A5000FFE706980599FEF709FF00E0FFE7FFE78B
:104A6000FFE70699402200208854FFE707A90020AD
:104A70000870FFE707A8007808B080BD80B586B051
:104A80000490039102920498C06A019003980090E8
:104A9000FFE704984021405C012804D1FFE705A905
:104AA0000220087008E10499402201208854FFE7A1
:104AB000FFE76846007820210840400900280DD013
:104AC000FFE702A80078202108404009002805D00F
:104AD000FFE704980099FFF799F9FFE76846007827
:104AE000102108400009002855D0FFE702A80078EF
:104AF00010210840000900284DD0FFE70498408DA0
:104B000000282ED1FFE704984121405C28280BD1D2
:104B1000FFE7019801214906884205D1FFE7049883
:104B20000099FFF70BF81BE004984121405C29280D
:104B300010D1FFE70198624988420BD0FFE7049843
:104B400001681020C8610498FEF770FE0498FFF712
:104B500077FA04E0049801681020C861FFE7FFE7D6
:104B600018E0049801681020C8610499486C042278
:104B7000104348640198002806D0FFE701980121FE
:104B80000906884205D1FFE70498416CFEF706FF4D
:104B9000FFE7FFE786E068460078042108408008C8
:104BA00000282FD0FFE702A80078042108408008E1
:104BB000002827D0FFE70498408D002813D0FFE796
:104BC00004980068406A0499496A08700499486A20
:104BD000401C48620499088D401E08850499488D40
:104BE000401E4885FFE70498408D002809D1FFE763
:104BF00001983349884204D0FFE70498FFF720FA70
:104C0000FFE74EE06846007808210840C008002809
:104C10000DD0FFE702A8007808210840C00800284E
:104C200005D0FFE704980099FEF720FE38E06846BB
:104C3000007802210840400800282FD0FFE702A892
:104C40000078022108404008002827D0FFE7049898
:104C5000408D002812D0FFE70499486A007809685F
:104C600088620499486A401C48620499488D401E35
:104C700048850499088D401E08850EE001980121A1
:104C80000906884204D0FFE70198002804D1FFE715
:104C90000498FFF7D5F9FFE7FFE700E0FFE7FFE73C
:104CA000FFE7FFE7FFE70499402200208854FFE771
:104CB00005A900200870FFE705A8007806B080BDB0
:104CC0000000FFFF10B585B000930B460146009829
:104CD000079C049103A90B8002AB1A700190049801
:104CE00000684068079A540DA043084C204009888A
:104CF000074C21401B781B04C918019B1943114321
:104D0000084304990968486005B010BD009C00FC88
:104D1000FF03000080B582B0019001984121405C02
:104D2000602811D1FFE70199412220208854019980
:104D300000200863FFE70199402200208854FFE724
:104D40000198FCF7BAFA0CE0019900200863FFE72C
:104D50000199402200208854FFE70198FCF734FBBA
:104D6000FFE702B080BD10B586B0089C04900391A7
:104D700002A802700193FFE7049800688069039914
:104D80000840401A4142484102A90978884229D185
:104D9000FFE70198401C002823D0FFE7FCF7ECF95F
:104DA0000899401A0199884204D8FFE70198002821
:104DB00016D1FFE7049A516C2020014351640499F5
:104DC000412288540499422200208854FFE7049924
:104DD000402200208854FFE705A90120087005E063
:104DE000FFE7C9E705A900200870FFE705A80078DC
:104DF00006B010BD80B584B0029001910092FFE72B
:104E000002980068806920210840400900282FD1BD
:104E1000FFE702980199009AFFF778F9002804D07B
:104E2000FFE703A90120087026E0FCF7A5F9009927
:104E3000401A0199884204D8FFE70198002816D14A
:104E4000FFE7029A516C20200143516402994122EC
:104E500088540299422200208854FFE70299402298
:104E600000208854FFE703A90120087004E0C7E789
:104E700003A900200870FFE703A8007804B080BDF4
:104E800080B584B0029001910092FFE7029800681B
:104E90008069022108404008002835D1FFE70298C8
:104EA0000199009AFFF732F9002804D0FFE703A91F
:104EB000012008702CE00198401C002823D0FFE757
:104EC000FCF75AF90099401A0199884204D8FFE783
:104ED0000198002816D1FFE7029A516C2020014367
:104EE0005164029941228854029942220020885438
:104EF000FFE70299402200208854FFE703A9012020
:104F0000087005E0FFE7C1E703A900200870FFE78C
:104F100003A8007804B080BD80B586B004900498E2
:104F20006421029101230193154903910091B82155
:104F30000F22FCF713FB03980078BD2804D0FFE78D
:104F400005A90120087017E0224980200870049804
:104F500064220292012301930091B8212022FCF7E0
:104F6000DDFC002804D0FFE705A90120087003E05C
:104F700005A900200870FFE705A8007806B080BDED
:104F8000A300002080B586B00490124901230B7065
:104F900004986422029201930091B8212122FCF727
:104FA000BDFC002804D0FFE705A9012008700DE032
:104FB00004980221019108490091B821AB220123F4
:104FC000FCF7FCFB05A900200870FFE705A80078A6
:104FD00006B080BDA4000020A100002010B584B060
:104FE000002100910391029119480190194A026031
:104FF000C163021D01239C074460816081630361DA
:10500000C160117751778162FF22C23242622C2245
:10501000815404224261016381614163C161FBF7F4
:105020003BFD002803D0FFE7FBF742FCFFE70A48FF
:105030000290012000030390054802A9FBF77EFCC3
:10504000002803D0FFE7FBF733FCFFE704B010BDF7
:10505000AC000020002401400200000470B590B0B4
:1050600000200F900E900D900C900B90FFE742489F
:10507000026804210A430260006808400A900A9806
:10508000FFE7FFE73C48026880210A4302600068AE
:10509000084009900998FFE7FFE7374802680121B7
:1050A0000A4302600068084008900898FFE7FFE79D
:1050B0003148026802210A430260006808400790F4
:1050C0000798FFE72D4800902D4E002204923146AC
:1050D000FCF73CF8049A0520000702902025294699
:1050E000FCF734F8049A3D200401A44805902146B9
:1050F000FCF72CF8009804990122039252030B92BA
:105100002122019212040C920D910BA90691FBF73A
:1051100093FE0098039B049A06990B960C930D92AC
:105120000E92FBF789FE0298039B049A06990B9551
:105130000C930D920E92FBF77FFE019B049A05984B
:1051400006990B930C920D92FBF776FE0298039B47
:10515000049A0699DB030B930C920D92FBF76CFEFD
:10516000039B049A059806990B940C930D920E924A
:10517000FBF762FE10B070BD2C100240000800501A
:10518000FF0F000080B582B01648019016490160FB
:1051900016494160002181600122C26001614161C4
:1051A0008161C1610162FCF713F9002803D0FFE7B8
:1051B000FBF77EFBFFE70B480021FBF7E3FF00282E
:1051C00003D0FFE7FBF774FBFFE706480021FCF77D
:1051D00024F8002803D0FFE7FBF76AFBFFE702B0E3
:1051E00080BDC04608010020005800408266500083
:1051F00080B582B00F4800900F49016041218900BD
:105200004160002101918160C16001614161012221
:1052100052028261C1610162416281620721C16201
:10522000FDF77AFD002803D0FFE7FBF741FBFFE71E
:1052300002B080BD540100200030014080B588B02C
:10524000002101910791069105910491039102912A
:10525000DD48012292070260154A42608160154ACA
:10526000C26001614161FDF79DFE002803D0FFE7A8
:10527000FBF71EFBFFE7012000030490D24804A9BE
:10528000FDF744FF002803D0FFE7FBF711FBFFE722
:10529000002002900390CC4802A9FDF71DFE0028D3
:1052A00003D0FFE7FBF704FBFFE708B080BDC04673
:1052B000BF5D0000E703000080B582B00D4801909B
:1052C0000D490160E1214902416000218160C16016
:1052D00001610C2242618161C16101624162FEF79C
:1052E00005F9002803D0FFE7FBF7E2FAFFE702B079
:1052F00080BDC046EC01002000440040FFE7FEE70F
:105300007047000080B586B01B4905910F208001D1
:10531000086001200090486018480490FBF78CFD5D
:10532000009A04985102FBF711FF009904980902B2
:10533000019100220392FBF709FF039A0498802150
:105340000291FBF703FF039A04984021FBF7FEFE4E
:10535000019B039A049805990B604A608A60FBF7E9
:105360006BFD029B039A049805990B604A608A6062
:10537000FBF762FD06B080BD8000002000040050F5
:105380007047000082B00A46014601A801706946D4
:105390000A7000780978090240180749086002B0CD
:1053A0007047C04681B0014668460170007800022F
:1053B0000149086001B070471408005080B51948D1
:1053C00001785348405C00280CD1FFE7164800786C
:1053D000002807D1FFE7134801784D48405CFFF7EC
:1053E000E1FF0DE00F4802784948815C0F48405CBE
:1053F0000F49895CFFF7C6FF0B4901200870FFE7E2
:1054000008480078002807D1FFE706490320087004
:1054100005490020087004E002490878401E087021
:10542000FFE780BD04000020940000200C00002055
:105430000000002080B584B002900298401E000E4B
:10544000002803D0FFE70120039011E00298401EDE
:105450000949086000200190C043032100F0FAFDD3
:10546000019806490860064A072111600390FFE78A
:10547000039804B080BDC04614E000E018E000E0EE
:1054800010E000E080B51B480168491C016001681C
:1054900019484843194940181949884227D8FFE755
:1054A000FFF78CFF1748007803281AD1FFE715494A
:1054B000002008700F49086013490860FFE7124890
:1054C000006803280CDCFFE70F4802680F48805C87
:1054D0000F498854FFE70C490868401C0860EEE754
:1054E00004E008490878401C0870FFE7FFE7FCF774
:1054F0008DFB80BD9C000020CDCCCCCC9999991916
:1055000032333333A00000209800002074020020C2
:10551000A500002010B59EB010A800903821FAF721
:10552000FBFE00200F900E900D900C900B9001A8A8
:105530002821FAF7F1FE00981E4B1A680321C902D0
:105540008A430121CC0212191A601091052212041B
:10555000119202221A920A041B92CA041C92890513
:105560001D91FCF7A3FF002803D0FFE7FBF7A0F98C
:10557000FFE70F200B9003200C9000200D900E9061
:105580000F900BA80121FCF751FD002803D0FFE785
:10559000FBF78EF9FFE7022001900020059001A89B
:1055A000FCF7BCFB002803D0FFE7FBF781F9FFE71E
:1055B0001EB010BD007000407047000080B502486A
:1055C000FDF76DFE80BDC046AC01002083B00290A7
:1055D0000191029800680090029801218907884291
:1055E0000FD0FFE70298274988420AD0FFE70298C8
:1055F0002549884205D0FFE70298244988420AD10C
:10560000FFE7009870218843009001984168009856
:1056100008430090FFE702980121890788420FD0D4
:10562000FFE70298174988420AD0FFE70298164917
:10563000884205D0FFE70298144988420BD1FFE762
:10564000009803210902884300900198C1680098DE
:1056500008430090FFE70098802188430199096979
:1056600008430090009802990860019880680299A8
:10567000C862019800680299886202990120486115
:1056800003B07047000400400008014000140140CE
:1056900085B0049003910292019304988068009071
:1056A0000098FF2109028843009003990298019A0B
:1056B0001202104301430098084300900098049997
:1056C000886005B0704783B00290019102988068AD
:1056D0000090009870218843009001980099084339
:1056E00007210843009000980299886003B0704732
:1056F00085B00490039102920498006A0090049986
:10570000086A012290430862049880690190019818
:10571000F02188430190029801010198084301900B
:1057200000980A218843009003990098084300904C
:1057300001980499886100980499086205B070473F
:1057400085B00490039102920499086A1022904354
:1057500008620498806901900498006A009001989A
:105760000F2109038843019002980103019808431F
:1057700001900098A02188430090039801010098AF
:105780000843009001980499886100980499086280
:1057900005B0704781B0009000982421405CC0079C
:1057A00000280CD0FFE700980068406801214904F8
:1057B000884300998A6A104309684860FFE70098A7
:1057C0002421405C800700280CD5FFE70098006882
:1057D00040680121090488430099CA6A1043096896
:1057E0004860FFE700982421405C400700280CD562
:1057F000FFE7009800684068012189048843009908
:105800000A6B104309684860FFE700982421405C58
:10581000000700280CD5FFE70098006840680121C8
:10582000C903884300994A6B104309684860FFE741
:1058300000982421405CC00600280CD5FFE70098A2
:105840000068806801210903884300998A6B10432E
:1058500009688860FFE700982421405C80060028E2
:105860000CD5FFE700980068806801214903884350
:105870000099CA6B104309688860FFE700982421EB
:10588000405C400600281DD5FFE70098006840688E
:10589000012109058843009A136C1843126850606F
:1058A0000098006C88420CD1FFE7009800684068BF
:1058B00003214905884300994A6C104309684860F0
:1058C000FFE7FFE700982421405C000600280CD584
:1058D000FFE70098006840680121C90488430099E7
:1058E0008A6C104309684860FFE701B07047000008
:1058F00080B584B002900299802200208850FBF786
:105900003BFC01900298006800680007002811D550
:10591000FFE70298019B1E490091012149050022E1
:1059200000F0BCFA002804D0FFE703A903200870A8
:105930002AE0FFE70298006800684007002811D5B8
:10594000FFE70298019B124900910121890500227D
:1059500000F0A4FA002804D0FFE703A90320087090
:1059600012E0FFE70299202088670299C867029930
:1059700000200866FFE70299742200208854FFE7A0
:1059800003A900200870FFE703A8007804B080BDD9
:10599000FFFFFF0110B58EB00D9008A90020087020
:1059A0000D980068D549884201D1FFE700E0FFE784
:1059B0000D9988680A6910434A691043C969084308
:1059C0000C900D9800680068F84908400C9908434D
:1059D0000D99096808600D98006840680321090363
:1059E00088430D99CA681043096848600D9880691A
:1059F0000C900D980068C149884206D0FFE70D98C9
:105A0000016A0C9808430C90FFE70D9800688068C5
:105A10000B21090288430C9908430D990968886095
:105A2000FFE70D980068EF4988422AD1FFE7EE486A
:105A3000006803210840069003281DD806988100BD
:105A400001A040588746C046595A0008695A0008C4
:105A5000615A0008715A00080AA9012008700FE075
:105A60000AA9022008700BE00AA90420087007E0C8
:105A70000AA90820087003E00AA910200870FFE7AF
:105A800093E00D980068FD4988423CD1FFE7D64875
:105A900000680C21084005900C282FD8059881003B
:105AA00001A040588746C046DD5A0008FD5A00084C
:105AB000FD5A0008FD5A0008ED5A0008FD5A00087A
:105AC000FD5A0008FD5A0008E55A0008FD5A000872
:105AD000FD5A0008FD5A0008F55A00080AA90020DE
