:020000040800F2
:100000007808002061020008E5690008C54C000876
:1000100000000000000000000000000000000000E0
:10002000000000000000000000000000696A0008F5
:100030000000000000000000E9690008BD6B000836
:1000400073020008730200087302000873020008BC
:1000500073020008730200087302000873020008AC
:10006000730200087302000873020008730200089C
:10007000730200087302000873020008796C00081C
:1000800073020008730200087302000800000000F9
:10009000730200087302000873020008730200086C
:1000A000C94C0008730200087302000873020008BC
:1000B000730200087302000873020008730200084C
:1000C00000F002F800F0BDF80CA030C80838241881
:1000D0002D18671EA246AB4654465D46AC4201D180
:1000E00000F0AFF87E460F3EB6460FCC01263342F5
:1000F00000D0FB1A3343A246AB461847F47A0000FF
:10010000147B0000103A02D378C878C1FAD852079D
:1001100001D330C830C101D504680C6070470000BD
:100120000023002400250026103A01D378C1FBD813
:10013000520700D330C100D50B60704710B56E294F
:1001400002D100F0DBFB10BD702902D100F015FDDB
:1001500010BD662902D107F089FC10BD652902D1C6
:1001600007F084FC10BD672902D107F07FFC10BDA9
:10017000612902D107F082FC10BD03681B0A01D37C
:1001800080231943692902D100F082FB10BD642944
:1001900002D100F07DFB10BD752902D100F078FB83
:1001A00010BD6F2902D100F093FC10BD782902D157
:1001B00000F0D0FC10BDE92902D100F02FFC10BDE9
:1001C000E42902D100F02AFC10BDF52902D100F08B
:1001D00025FC10BDEF2902D100F086FC10BDF829E6
:1001E00002D100F0C5FC10BD0368DB0901D38023F8
:1001F0001943632902D101F0A8F910BD732902D176
:1002000001F0ABF910BDE32902D101F0B5F910BD41
:10021000F32902D101F0B8F910BD002010BD1FB5BF
:1002200001F046FA04000020002107F031FB401CD9
:1002300060600020002107F015FBE0601FBD10B5D5
:1002400010BD01F00DFA1146FFF7E9FF07F0A2FA21
:1002500001F0A2FD03B4FFF7F2FF03BC01F03CFE86
:100260000748804707480047FEE7FEE7FEE7FEE74E
:10027000FEE7FEE704480549054A064B70470000C3
:10028000756C0008C1000008780200207808002082
:1002900078040020780400204343514330B55C18B3
:1002A000010C130C0D4692B25D4380B251432C19E0
:1002B000054655430A0C09044D1962415843010C87
:1002C00000044019514130BDFEB5044610460D46AC
:1002D000184373D0A6468C460020A41A01469D41BF
:1002E00067D36646002701243D46B61A9D4102D3D6
:1002F00013463A462124654676462F04360C3E4383
:100300002D0CB61A9D4104D3150C1B042B4312046B
:100310001034654676462F06360A3E432D0AB61A35
:100320009D4104D3150E1B022B431202083465466F
:1003300076462F0736093E432D09B61A9D4104D350
:10034000150F1B012B431201241D65467646AF078E
:10035000B6083E43AD08B61A9D4104D3950F9B00E5
:100360002B439200A41C65467646EF0776083E4371
:100370006D08B61A9D411AD392185B41641C16E0B1
:100380000018764665464941B71A9D410191009093
:1003900009D36046B11A98418E4684460098019967
:1003A0000025401C6941DD0752082A435B08641E92
:1003B000E6D57246634603B0F0BDFFE7204628430A
:1003C00007D00020C0430146C046C04622462B4607
:1003D000F1E700200146F7E70FB41CB5084B06AA69
:1003E0007B4469460090059800F0A1FA044600207D
:1003F000694600F0AFFA20461CBC08BC04B01847A0
:100400007105000001E004C0091F0429FBD28B071D
:1004100001D50280801CC90700D0027070470029F6
:100420000BD0C30702D00270401C491E022904D31E
:10043000830702D50280801C891EE3E70022EEE7D5
:100440000022DFE7002203098B422CD3030A8B42F0
:1004500011D300239C464EE003460B433CD40022BC
:1004600043088B4231D303098B421CD3030A8B42CE
:1004700001D394463FE0C3098B4201D3CB01C01A9C
:10048000524183098B4201D38B01C01A5241430967
:100490008B4201D34B01C01A524103098B4201D355
:1004A0000B01C01A5241C3088B4201D3CB00C01AC2
:1004B000524183088B4201D38B00C01A524143083A
:1004C0008B4201D34B00C01A5241411A00D201465F
:1004D0005241104670475DE0CA0F00D049420310F8
:1004E00000D3404253409C46002203098B422DD347
:1004F000030A8B4212D38901FC2212BA030A8B42EF
:100500000CD3890192118B4208D3890192118B423D
:1005100004D389013AD0921100E08909C3098B42C2
:1005200001D3CB01C01A524183098B4201D38B0105
:10053000C01A524143098B4201D34B01C01A5241A8
:1005400003098B4201D30B01C01A5241C3088B42ED
:1005500001D3CB00C01A524183088B4201D38B00D8
:10056000C01A5241D9D243088B4201D34B00C01A62
:100570005241411A00D201465241104663465B1077
:1005800001D34042002B00D54942704763465B10BF
:1005900000D3404201B50549002802DC491C08404F
:1005A00000E00846C046C04602BD00BFFFFFFF7F17
:1005B00070477047704700000121C90501234118A9
:1005C00042001B06D3185B0E0AD0C1100722D206C8
:1005D000891840075242D14201D55200891870470C
:1005E000090208D50146002A03D0C10FC90700201F
:1005F000704710467047420202D0002002497047FF
:10060000072109050143F4E70000F87FF0B5FF2555
:100610002D04C609C209FF2704462E400137CB0925
:100620003E4348402A402B400746002A6BD0002B0F
:1006300069D0AA4267D0AB4265D0002800DA3246C2
:100640000125ED0529432C4309022002090AD21A8B
:100650004B0C7F24E31A434C000A7C44E35C7D246A
:100660002404121914145B00A218884201D3521CEE
:1006700000E0400049420C465C4324115C43DB012E
:100680006415E318040A5C43C502200D0C4644437C
:100690006419250A5D432303EC0C0D4665430003F2
:1006A0000019EB184C42A34201D35B18401CD4053F
:1006B0002018002B07D05B00C91804D3401C002968
:1006C00001D1400840003F2189048A4209D3002A11
:1006D00008DC1106090F04D0032149074018C00F98
:1006E000C007F0BD01224100120689187F22520680
:1006F0009142F6D205214907C84201D59010F0BDBC
:10070000FF20C005F0BD002F00DA32461648AA428D
:1007100007D2AB4205D21902090E17D0F80FC00755
:10072000F0BDFF2563002D06AB42F9D84900A94270
:10073000F6D8AB4201D1A942F2D0A94201D10021A1
:1007400001E061004908D0050843F0BD1102090E1F
:10075000FBD0FF200243D005F0BD0A4601461046FB
:1007600054E700002E7400000000C07F1F22030C1D
:1007700002D10F2200041CD0030E01D10002083A5E
:10078000030F01D10001121F830F01D18000921EBF
:10079000002801DB4000521ED205511802125118E8
:1007A0001922904004D3491C002801D1490849006E
:1007B00008467047C10FC90700D040420122920786
:1007C0001143D3E701218907D0E770B50446856955
:1007D0000068C10601D5302600E02026C00707D0FA
:1007E00070BD62683046A1689047206A401C206254
:1007F0006D1EF6D570BD70B5044685690078C007DA
:1008000007D170BD6268A16820209047206A401C13
:1008100020626D1EF6D570BD09684A0501D540B24B
:100820007047C905FCD500B2704709684A0501D573
:10083000C0B27047C905FCD580B2704770B50C4690
:100840000546012A05D02878800600D5EA690023EC
:1008500002E0012305E05B1C934202D2E05C002829
:10086000F9D1A869E618C01AA861286AC0182862D8
:100870002846FFF7AAFF04E06A682078A968641C8C
:100880009047B442F8D32846FFF7B5FF70BD00008B
:10089000F7B5002575291068009914A611D0FFF747
:1008A000BBFF002802DA404211A608E0009909685F
:1008B0008A0701D50FA602E0490704D50EA6012537
:1008C00001E0FFF7B2FF009F0024243704E000F0AE
:1008D00080FE30313955641C0028F8D12B46324651
:1008E0002146009800F057FAFEBD0000000000000D
:1008F0002D0000002B00000020000000116802689D
:10090000006A530501D5087009E0D30501D50880B8
:1009100005E0130602D5C21705C100E008600120FA
:100920007047000001694A1C02610878704700B5F1
:100930008FB00291002105910549019379440391FB
:1009400011460490684600F025F90FB000BD000084
:10095000E5FFFFFF0A681070521C0A607047000034
:10096000F7B50446154686B02B487844002703C8DF
:100970003E460090019111E007986A467100415A85
:1009800002A800F005FE411C07D02178890603D596
:10099000E269391891420ED83F18761C20788006FB
:1009A00002D5E069B84206DDAE42E5DB079871008A
:1009B000405A0028E0D1A069C01BA0612046FFF783
:1009C00004FF154878445A3803C80090002001916C
:1009D00016E041006A460798415A02A800F0D8FD87
:1009E0000590401C0AD0002505E0626802A8A168B5
:1009F000405D90476D1C05988542F6D30498401CD5
:100A0000B0420490E5DB206AC01920622046FFF75F
:100A1000F2FE09B0F0BD00005E710000F7B5D21D16
:100A20000025D20815A6D200F52905CA11D0002A42
:100A300005DA00214042914111A60A4608E00099DA
:100A400009688B0701D50FA602E0490701D50EA65C
:100A500001251146009F0024243704E000F05EF9D0
:100A600030323A55641C02460A43F7D12B463246CF
:100A70002146009800F08FF9FEBD00000000000044
:100A80002D0000002B0000002000000070B504467F
:100A90000021243408E05507D2086D0F3035655425
:100AA0005D072A43DB08491C15461D43F3D1046842
:100AB000002310A2250708D520252C400C4304D084
:100AC000C46901230CA2641EC46100F064F970BD06
:100AD00010B5044621461068FFF7A7FE0023024622
:100AE0002046FFF7D3FF10BDD21DD108C9000CC9A5
:100AF000CCE700000000000030000000F8B50F4611
:100B00000188090502D5224C7C4402E0204C7C443B
:100B10000E3405460021243508E016071209360F69
:100B2000A65D6E541E0732431B09491C16461E4320
:100B3000F3D1224604780023240705D5702F06D070
:100B4000002901D00223113200F025F9F8BD01235C
:100B50001032F9E770B504460D4621461068FFF7DC
:100B600064FE0023024629462046FFF7C7FF70BDFA
:100B7000D21DD308DB000CCBC0E730B403682024BF
:100B80001268234303600823C36130BC0023B5E728
:100B9000C86F0000F3B50446002081B020622046F3
:100BA000E1688847002872D0252802D06268A168D1
:100BB000ABE0594F00267F442046E1688847202853
:100BC000054608DB312D06D2781920380078002838
:100BD00001D00643F0E7B00701D50420864300208A
:100BE000E0610746A0612A2D0AD0284606F033FEB0
:100BF000002827D0B8000019303D0090856119E029
:100C00000298BA00121902C8916102902046E16868
:100C10008847012F054617D1E06900281FDA2020F8
:100C200086431CE000980A218069484300994019D6
:100C3000303888612046E1688847054606F00BFE9B
:100C40000028EFD1012F0AD02E2D08D12046E168CF
:100C500088470546202006437F1C022FC3DBA0697E
:100C6000002803DA4042A06101200643F00701D0CA
:100C7000102086436C2D0BD0682D09D04C2D3CD014
:100C80006A2D38D0742D38D07A2D36D016E040E059
:100C9000E1682F4620468847B842054609D16C2FA7
:100CA00029D001208002E168064320468847054696
:100CB00004E06C2F1DD0FF2001300643002D28D00A
:100CC00028464138192803D80120C00206432035A0
:100CD000204626602946029A1646FFF72FFA00287A
:100CE00010D001280BD0F61DF008C000083002908B
:100CF00055E74020E1E78020D5E70020D3E7361D07
:100D000002964CE762682846A1689047206A401C1A
:100D100044E7206AFEBD0000426F00000B4670B53C
:100D2000024689078008084319469D08141AA941FC
:100D300025090807054308092C194841250A010619
:100D40000D43010A2C194141200C0D0428430D0CC0
:100D500000194D41002140194D41C0086907084361
:100D6000E908840F8D002543840024184D4124197F
:100D70006D41121BAB4107E00925ED432C115219BF
:100D800063410024401C61411C460A250026551B76
:100D9000B441F1D270BDFFB504460D4681B0243098
:100DA00000902168880604D51022E06991432160F3
:100DB00000E00120A84201DD471B00E00027049865
:100DC000A1697A191018081AA0612078C00602D407
:100DD0002046FFF7FAFC002608E003986268A16845
:100DE000805D9047206A401C761C206204988642F1
:100DF000F3DB2078C0060AD52046FFF7E6FC06E0C4
:100E00006268A16830209047206A401C2062384602
:100E10007F1E0028F4DC07E000986268A168405D4E
:100E20009047206A401C206228466D1E0028F3DC93
:100E30002046FFF7E0FC2078000602D5022005B02E
:100E4000F0BD0120FBE70000FFB50C461E468FB049
:100E500003CA089009914F007D0D00D16D1E00213D
:100E600008460020C0460321099A89050840002A47
:100E700003DA8200801840080840800D01280A909B
:100E800002DD0020C0430A90089807430DD0F048C7
:100E9000F049281848430714189800281DD07542B7
:100EA000291E1DDD0A9842421BE01898012802D035
:100EB0000020302104E00020F24305E02154401CD2
:100EC000B042FBDB30460022189B002121540F99D1
:100ED0008B600A60486013B0F0BDBD1B6D1CDFE77E
:100EE0000A9A002900DA69420BA800F029FC0BAB32
:100EF00007CB03AB07C30899099800F08DFC6B463C
:100F000007C30146D4480918002D00910BDDD249D2
:100F100003980A9A49424018002303A9039068469F
:100F200000F0EAFE08E003990A9A0023081803A9D2
:100F30000390684600F08AFE6B4607C30004000C6D
:100F400003D00020C043410800E01046189A002A50
:100F500003D00022009215461EE0751E05D4FFF74F
:100F6000DDFE303262556D1EF9D501220843079629
:100F700002D000227F1C04E02078302801D100221A
:100F80007F1E002A069787D01EE0112D07DAFFF793
:100F9000C5FE303262556D1C02460A43F5D1084346
:100FA00003D00098002819D00EE00021681E05E04B
:100FB000235C625C63542254401E491C8142F7DB6F
:100FC000A81B401E07950690079A18990020A05468
:100FD0000F98079B069A81600CC07CE711260020C1
:100FE000189059E7D21DF0B50D460446D10893B0CC
:100FF000C90003C90C900D9106F00AFC02460D9839
:10100000C00F01D02D2007E02068810701D52B20DB
:1010100002E04007C00F4001032A0F9001D0072AC9
:1010200005DB03462946204600F046FB0EE120780A
:10103000800601D5E76900E006272846652D04D023
:10104000662814D0672D69D12DE00020112F009063
:1010500001DB112300E07B1C0CAA03A910A8FFF7F9
:10106000F3FE1199002610987D1C0E9142E001209C
:101070003B460CAAC0070B900120009003A910A8C2
:10108000FFF7E2FE119D12981099002600280E9598
:1010900001D1781C0D18781B02D446427D1C761EA7
:1010A000E81B00903AE0012F00DA01270020112F01
:1010B000009001DD112300E03B460CAA03A910A813
:1010C000FFF7C2FE11993D46109800260E91217837
:1010D00009070BD40E99A94200DA0D4603A9012D88
:1010E00004DD4A19203AD27F302A06D0B84201DA0C
:1010F000011D04DA012100910FE06D1EEFE70028C9
:1011000002DC86192D1A03E0411CA94200DD0D46C0
:10111000801B401C00900120C0070B902078000726
:1011200005D40098A84202DB0020C0430090694625
:101130000020C8720B98012102AF0337C90788420B
:1011400025D0022010902B2011900B9800280BDA4C
:1011500040420B902D20119006E00B9800F039FAD8
:1011600030317F1E0B9039701099481E0029109065
:10117000F3DC0B980028F0D111987F1E387020887E
:10118000000501D5452000E065207F1E387001A8CC
:10119000C01BC01D0B900F98002800D001204119E2
:1011A0000098C01709180B980818A169081A401E62
:1011B000A0612078C00602D42046FFF706FB0F98F6
:1011C000002805D06268A1689047206A401C206210
:1011D0002078C00625D52046FFF7F7FA21E0002E3B
:1011E00007DB0E98B04204DD03A86268805DA16849
:1011F00002E06268A16830209047206A761C401C9B
:1012000020620098401E002800900AD100F050FA99
:10121000C06862680168405CA1689047206A401C11
:10122000206228466D1E0028D9DC07E06268387805
:10123000A1687F1C9047206A401C20620B99481EC1
:1012400000290B90F2DC2046FFF7D5FA032042E696
:1012500001FCFFFF104D0000E1DFFFFFD21DF0B5E4
:1012600004460D46D0088DB0C00046680768314678
:10127000384606F0CDFA0246F00F01D02D2307E0E4
:101280002068810701D52B2302E04007C00F4301EE
:101290006846002B037001D0012000E00020032AE3
:1012A0000A9001D0072A04DB2946204600F004FA00
:1012B0002DE12078800601D40D2500E0E56970005D
:1012C000400D0D2D01904BDA300D00210B9008469A
:1012D0000020C046032189050840002E05DA82005F
:1012E0008018C20F1018401008408015012801DD39
:1012F0000020C043A9000023182906D39C460A46B3
:101300000123183A1B07D34003E001221205CA400B
:1013100094460C31202902D33A46203900E0324667
:101320008A40002802DD002A06D119E0002817D1E2
:101330000121C9078A4213D3194663467F185E41CB
:10134000002806D10120C007824202D10846874307
:101350009E430B98310D814202D00198401C0190B0
:101360002088000502D57149794402E06F4979442B
:1013700019396B460A9830221A540A980A7C401C84
:101380001A54401C0A900198002801DC302000E02B
:1013900031201872019A0120002A02D0644BD21821
:1013A00004E072003A4302D0614A521C0192002DBF
:1013B00002DC2278120703D56A462E2050720220E2
:1013C0000022864694460CE032033601120F6D1E51
:1013D0008B5C02AA13546246521C401C9446052A98
:1013E00001DA002DF0DC002202AE08E03B0F3F01E5
:1013F000CB5C521C6D1E3354401C082A01DA002DB0
:10140000F4DC23689A0601D511E0401E704504DD26
:101410003218203AD27F302AF7D0002807DD321860
:10142000203AD27F2E2A02D11A0700D4401E002D66
:1014300003DD3E223254401C6D1E497C315401991B
:10144000401C002906DA2D21471C315401984042E6
:10145000019003E02B21471C315401987D21C900E4
:10146000884206DBFEF7F8FF3030F0557F1C019113
:1014700001E0642808DB01986421FEF7EDFF3030BD
:10148000F0557F1C019101E00A2806DB01980A2132
:10149000FEF7E2FF3030F0557F1C01980A21FEF77D
:1014A000DBFF3031F1550A98A1697F1C7A191018B9
:1014B000081AA0612078C00602D42046FFF785F9FB
:1014C000216A6E460A980818206204E06268307843
:1014D000A168761C90470A98401E0A90401CF5D1DE
:1014E0002078C00602D52046FFF76FF902AE09E06A
:1014F0003078761C3E280DD06268A1689047206A3B
:10150000401C20627F1EF3D22046FFF774F90DB015
:101510000320F0BD206A4019206203E06268A168E0
:10152000302090476D1EEDD3F8E70000B46700004F
:1015300001FCFFFF10B54369002B02D0C046C04636
:1015400001E0FFF77BF9012010BD1278014624313C
:101550000A7000224A700122ECE711680022D2438F
:10156000E8E710B54369002B02D0C046C04601E051
:10157000FFF7F6F9012010BD12880146243182845C
:101580000022C2840122ECE711680022D243E8E77E
:10159000F8B516460C46054600F082F80368FF20B1
:1015A0000230C05C012807D0FF2C0FD8185D00283E
:1015B0000CD001202C70F8BDFF3332462146083391
:1015C0001868C71828460023B847F8BD0020C04354
:1015D000F8BD01468008081A02091018020A1018FE
:1015E000020C1018C008820012185200891A01E07B
:1015F000401C0A390A29FBD27047000010B5FF23AE
:101600001B0644009C421DD84C009C421AD803463D
:10161000124A0B4307D4401A02D3EFF3008010BDE7
:10162000EFF3008010BD081A03D3EFF3008090435E
:1016300005E0EFF3008001219043C907084380F3E0
:10164000008810BD0D231B041A4204D0114600204F
:1016500000F0AAFB10BD00F0BFFB10BD0000009021
:10166000754600F0C1FBAE46050069465346C0080A
:10167000C000854618B020B5FEF7FCFD60BCB6463C
:1016800000260027C0C5C0C5C0C5C0C5C0C5C0C5EF
:10169000C0C5C0C5403D490849008D46704700009F
:1016A00010B500F005F8001D10BD00BFE561000099
:1016B0000048704740000020F8B51F46044601234B
:1016C0000068DB02032601461840072A05DB0028D4
:1016D00001D017A506E017A504E0002801D016A543
:1016E00000E016A5102081432160A069C01E002FD4
:1016F000A06101D0401EA0612046FFF766F8002FD0
:1017000009D038466268A1689047206A401C206270
:10171000C01C206206E0206AFAE762682878A168A7
:101720006D1C9047761EF8D22046FFF764F8F8BD8E
:101730004E414E006E616E00494E4600696E660075
:10174000F7B516468AB0334878446C4603467C3376
:10175000C06F5A689B680DC42E487844763003AC3D
:101760000DC80DC43720C001081837211B30FEF703
:1017700073FE05460C46803D1B3C02D564420120A9
:1017800000E000200027099010E0E0070CD00C20BA
:1017900020497843794432464C3941186846012340
:1017A00000F054FA6B4607C364107F1C002CECD188
:1017B000184F7F442E3F16E0E80712D02001C019D1
:1017C0000EC80691089307920068F04201D198195B
:1017D00008903246012306A903A800F037FA03ABAC
:1017E00007C36D10641C002DE6D10998002806D0AF
:1017F00032466946012303A800F07EFA05E0012382
:101800003246694603A800F021FA0A9B07C30DB0CF
:10181000F0BD0000E8630000034640000A4610B532
:10182000400D0BD00121C9070F24A40200191C038D
:1018300064082143540D2143D20207E00021012016
:10184000F2E7D40F490021435200401E0029F8DA84
:10185000DB0FDB07184310BDFFB50D46144685B0FE
:101860004868516805F0BCFF00910190A868A16824
:1018700005F0B6FF02910390A868616805F0B0FF1B
:10188000029A12188242029201D2012000E0002046
:10189000019A0B18D2180028019202D08A4202D96C
:1018A00003E08A4201D2012000E0002000990818DC
:1018B00000906868A16805F093FF029A12188242AE
:1018C000029201D2012000E00020019A0B18D218E8
:1018D0000028019202D08A4202D903E08A4201D252
:1018E000012000E000200099081800902868216875
:1018F00040004900400849084018FA49471814E0D8
:1019000001994000C90F08430090019802994000D6
:10191000C90F08430190029803994000C90F08437A
:101920000290039840007F1E039000980028E7DA99
:101930000898002801D0EC4E00E00026B74201DAFA
:10194000012000E00020002804902AD0F71BF806B0
:10195000C00E15D0029B2021091A039A8B401A430E
:101960000392029A019BC2408B401A430292019A51
:10197000009BC2408B4000991A430192C1400091E4
:101980007B110DD06F460320C11A03D500218200C0
:10199000B95003E08A008100BA587A50401EF3D54E
:1019A000374603980299002800D001200143089887
:1019B0000291002808460CD0002800D0012001998F
:1019C000019A490508430121D20AC902D2020192B3
:1019D00000E001210E9B0122D207012B02D0002B37
:1019E00003D013E0002807D120E0904204D89042B1
:1019F0000CD1019B0B4209D0019B5918019105D1D3
:101A00000099491C009101D17F1C009200280DD043
:101A1000102108460020C0460498002806D00F98E0
:101A2000002803D0082108460020C0462868216805
:101A3000019B009A4840C10F0598C90739430EC061
:101A400009B0F0BDFFB587B0099A089808995368A6
:101A50009268406889689646002203931746944628
:101A6000089A12685300099A5B08126852005208DB
:101A70009A1A9E4BD4180A9A002A01D0352200E007
:101A8000402206920022012315460492DB070593AB
:101A900024E0002D05D175460346039E4D1BB3413E
:101AA00009D375466646039B491B049D9841059BD7
:101AB0007519AC465F4163463B4308D0059B049EC5
:101AC000DD0776082E435B080496059301E0521E5D
:101AD000641EC50FED0749184041521C069B9A42EF
:101AE000D7DB002D04D17546039A6B1A824101D2CF
:101AF00003200CE0039A0B466B404240134303D093
:101B0000014303D0012002E0022000E000206146F2
:101B100001910021009702910A99002905D06146A0
:101B200040020143704B019102E0800700230290C4
:101B30009C4201DA012000E0002007003AD01A1B85
:101B4000D006C00E15D0029D2021019C091AC54067
:101B50008C402543029C8C4000D001242543019CED
:101B60000295009DC4408D4000992C430194C140D2
:101B7000009154111DD06D460221002202290CD182
:101B80000320001B07E0002804DB8600AE59002E6E
:101B900000D00122401C0328F5DB081B02D5880079
:101BA0002A5004E08000285810438A00A850491E9B
:101BB000E3D51C460A98002802980CD0002800D0D3
:101BC00001200199019A490508430121D20AC9025D
:101BD000D202019200E00121109B0122D207012BC9
:101BE00002D0002B03D013E0002807D11FE0904261
:101BF00004D890420CD1019B0B4209D0019B59188B
:101C0000019105D10099491C009101D1641C0092F9
:101C100000280CD0102108460020C046002F06D016
:101C20001198002803D0082108460020C0460898D3
:101C30000999019A009B006809684840C10F0798FC
:101C4000C907214382600AC00BB0F0BD00B585B062
:101C5000019300920A460146002302A8FFF7FCFD0B
:101C600002A807C805B000BDFFB50A461F4685B0EB
:101C70000799019301230091014602A8FFF7ECFDAB
:101C800002990398049ECA0F4900D20700920F22BE
:101C9000490892028C1A0021002800DB0C464500FE
:101CA00013486D08844214D3079A002A04DA441EAC
:101CB0000026104DF64302E004460D460E46102164
:101CC00008460020C046002F03D00421084600200B
:101CD000C0462005E90A0843009908436905F20A4D
:101CE0001143ADE602C0FFFF013C0000FF3F0000D2
:101CF000FF070000FFFFFF7F00B585B00193009252
:101D00000A460146002302A8FFF79CFE02A807C866
:101D1000A8E7FFB50A461F4685B00799019301233E
:101D20000091014602A8FFF78DFE02990398049ED8
:101D3000CA0F4900D20700920F22490892028C1A5A
:101D40000021002800DB0C46450011486D08844244
:101D500014D3079A002A04DA441E00260D4DF643D8
:101D600002E004460D460E46102108460020C046FB
:101D7000002F03D0042108460020C0462005E90AB0
:101D80000843009908436905F20A114358E6000028
:101D9000FF070000FFFFFF7F10B50446C046C046A6
:101DA0002046FEF757FA10BDC80212D54803400F6F
:101DB000002804D0C803C043012188407047EFF3D6
:101DC00000800001000903210907084380F300880F
:101DD000704700207047000010B5024800F04CF832
:101DE00010BD00000000C07F0048704720000020A8
:101DF000024670B50A4392072AD11E4DEE0104C86F
:101E000008C9541B9443344017D0D0B2D9B2401AF9
:101E10002106014310D190B299B2401A2104014326
:101E20000AD110021902000A090A401A21020143CC
:101E300002D1100E190E401A70BD9A42DFD010BAAE
:101E400019BA884201D9012070BD0020C04370BD7D
:101E500002780B78401C491C002A09D09A4207D10D
:101E600002780B78401C491C002A01D09A42EFD01E
:101E7000D01A70BD0101010110B50C461107090F00
:101E8000092904D00A290AD008290CD104E01146F6
:101E90000820FFF789FF06E0510606D501E051064C
:101EA00001D50120C007214610BDD10607D501018B
:101EB0000909CC084907000E0006044309E0410F58
:101EC00020024907000A0143200E00061D22D141CD
:101ED00001430846E7E7000001491820ABBEFEE7D2
:101EE000260002007047000080B584B0039003987C
:101EF0000190094800680949FEF7A4FA019948438E
:101F00000290FFE70298002804D0FFE70298401EE5
:101F10000290F7E704B080BD0400002040420F00AB
:101F200080B586B03C4905910F20800108600120F2
:101F3000009048603948049000F0F0FA009A049844
:101F4000510200F075FC00990498090200220392E6
:101F500000F06EFC039A04988021019100F068FC67
:101F6000039A04984021029100F062FC019B039ABD
:101F7000049805990B604A608A6000F0CFFA029BD2
:101F8000039A049805990B604A608A6000F0C6FACB
:101F900006B080BD81B0EFF3108072B60090FFE70D
:101FA000FEE7000080B586B01B4905910F20800137
:101FB00008600120009048601848049000F0AEFAD4
:101FC000009A0498510200F033FC00990498090229
:101FD00001910022039200F02BFC039A04988021C7
:101FE00000F026FC039A04984021029100F020FCA6
:101FF000019B039A049805990B604A608A6000F07F
:102000008DFA029B039A049805990B604A608A60D6
:1020100000F084FA06B080BD80000020000400506B
:1020200080B584B002900191FFE702985021405C96
:10203000012804D1FFE703A90220087093E0029968
:10204000502201208854FFE7FFE70298006880686B
:1020500004210840800800280FD0FFE70299486D4E
:10206000202210434865FFE702995022002088543F
:10207000FFE703A90120087075E0019840683C491A
:10208000884234D0FFE7019802683B48024002983A
:102090000168886A104388620198807840070028A8
:1020A0000AD5FFE7DF4908680122D205104308601E
:1020B0000A20FFF719FFFFE70198807880070028C2
:1020C00007D5FFE7D7490868012292051043086049
:1020D000FFE701988078C007002807D0FFE7D149C3
:1020E00008680122120610430860FFE731E00198FA
:1020F0000068C2431F48024302980168886A104082
:102100008862019880784007002807D5FFE7C54915
:1021100008680122D20590430860FFE701988078A3
:102120008007002807D5FFE7BE490868012292050D
:1021300090430860FFE701988078C007002807D027
:10214000FFE7B84908680122120690430860FFE7DC
:10215000FFE7FFE70299502200208854FFE703A918
:1021600000200870FFE703A8007804B080BDC046D7
:10217000011000000000F8FFFFFF070080B584B0E9
:1021800002900298002804D1FFE703A901200870FB
:1021900043E10298406D00280AD1FFE70299002030
:1021A0008865029950228854029800F03FF9FFE7B1
:1021B0000298406D10210840102809D0FFE70298CE
:1021C0000068806804210840800800280FD0FFE7DD
:1021D0000299486D102210434865FFE7029950228A
:1021E00000208854FFE703A90120087015E1029838
:1021F000406D022108430121090288430299486584
:1022000002980068816803200140002001290190A4
:1022100005D1FFE70298006800680190FFE7019888
:10222000C007002845D1FFE7FFE702984068032177
:10223000890788420ED0FFE702984068012189078C
:10224000884207D0FFE7029840680121C907884209
:102250000ED1FFE7029801680869032292079043B4
:10226000086102984268016808691043086112E039
:10227000029801680869032292079043086169493E
:1022800008680F2292049043086002984268086828
:1022900010430860FFE7FFE702980168C86818224A
:1022A0009043C860029882680168C8681043C8609B
:1022B000FFE75C49086801225206904308600298D3
:1022C000406B420608681043086002980068806806
:1022D000C000002808D4FFE702980168886801223E
:1022E000120710438860FFE702980168C8684E4AE9
:1022F0001040C86002980090C2680169891E4B4274
:10230000594189000A432021415C49030A432C2199
:10231000415C49000A43016B0A43816989030A430E
:10232000C169C9030A430168C8681043C8600298BC
:10233000406AFF21C231884209D0FFE70298426A11
:10234000816A0A430168C8681043C860FFE70298C1
:102350002121405C01281AD1FFE702982021405C2E
:10236000002808D1FFE702980168C868012212041A
:102370001043C8600AE00299486D20221043486566
:102380000299886D012210438865FFE7FFE70298F4
:10239000C06B012818D1FFE7029801680869FF2285
:1023A0009200904308610298026C416C0A43816C70
:1023B0000A430168086910430861029801680869C6
:1023C0000122104308610EE0029800680069C0070E
:1023D000002807D0FFE702980168086901229043AE
:1023E0000861FFE7FFE70298016848690722904308
:1023F00048610298826B01684869104348610299FC
:10240000002088650299496D0122114302229143FF
:10241000029A516503A90870FFE703A8007804B089
:1024200080BDC046082701401902FEFF80B588B074
:102430000790002006900590049003900290079862
:102440000068114988421DD1FFE7EE490868012262
:10245000520210430860FFE70C48026801210A435A
:1024600002600068084001900198FFE70220029096
:1024700003200390002004900520000702A900F02B
:102480004DF8FFE708B080BD002401402C10024049
:1024900080B582B00190694600200870019825211E
:1024A000405C022807D0FFE701990420C863694611
:1024B0000120087026E00198016808680E22904308
:1024C0000860019802681168012081431160019A37
:1024D000536C1C210B4001469940126C51600199CC
:1024E00025228854FFE70199242200208854FFE721
:1024F0000198806B002804D0FFE70198816B884722
:10250000FFE7FFE76846007802B080BD81B0009029
:1025100000982521405C01B0704700008CB00B9002
:102520000A910020099008900790FFE70A98006838
:102530000999C840002800D162E10A980068099A08
:1025400001219140084008900898002800D153E1EB
:102550000A98406803210840012807D0FFE70A983D
:1025600040680321084002282CD1FFE70B988068BF
:1025700007900998400003218140079888430790FD
:102580000A98C1680998400081400798084307905D
:1025900007980B9988600B9840680790099801216B
:1025A00081400798884307900A98406810210840A6
:1025B00001090998814007980843079007980B99EB
:1025C0004860FFE70A98406803210840032816D0B6
:1025D000FFE70B98C06807900998400003218140ED
:1025E0000798884307900A988168099840008140BD
:1025F00007980843079007980B99C860FFE70A9867
:10260000406803210840022820D1FFE70B98099970
:10261000C90889004018006A079009984007C00E51
:102620000F2181400798884307900A98016909980B
:102630004007C00E814007980843079007980B9900
:10264000099AD208920089180862FFE70B9800687F
:10265000079009984100032002468A400799914358
:1026600007910A99496801400998400081400798FC
:102670000843079007980B9908600A9880798007AB
:10268000002800D1B7E05F490868012210430860C4
:102690000998032188435C494058079009988007AE
:1026A000000F0F2181400798884307900B98052160
:1026B0000907884203D1FFE70020069038E00B9815
:1026C0005249884203D1FFE7012005902DE00B9885
:1026D0004F49884203D1FFE70220049022E00B9883
:1026E0004C49884203D1FFE70320039017E00B9881
:1026F0004949884203D1FFE7042002900CE00B997E
:10270000464A0520062300939142019001D000988B
:10271000019001980290FFE702980390FFE7039869
:102720000490FFE704980590FFE705980690FFE7FF
:10273000069909988007000F814007980843079081
:1027400007980999032291432F4A8850344800681A
:10275000079008990798884307900A988079C007DE
:10276000002805D0FFE70899079808430790FFE77E
:1027700007982B4908602B4800680790089907982C
:10278000884307900A9880798007002805D5FFE7DD
:102790000899079808430790FFE7079821490860C0
:1027A00021480068079008990798884307900A987D
:1027B0008079C006002805D5FFE7089907980843E7
:1027C0000790FFE7079818490860184800680790C5
:1027D00008990798884307900A988079800600280E
:1027E00005D5FFE70899079808430790FFE7079882
:1027F0000E490860FFE7FFE70998401C099095E63D
:102800000CB0704734100240080001400004005032
:1028100000080050000C005000100050001C005038
:102820000004014004040140080401400C0401407C
:1028300083B0029001A801806846027000780028E9
:1028400005D0FFE701A800880299886104E001A88B
:10285000008802998862FFE703B07047014800686A
:102860007047C0466C02002010B583B00190009103
:1028700001984121405C202839D1FFE7FFE701980A
:102880004021405C012804D1FFE702A90220087022
:1028900031E00199402201208854FFE7FFE70199C8
:1028A0004122242088540198016808680123984334
:1028B00008600198016808681C03A0430860009C38
:1028C0000198016808682043086001980168086859
:1028D00018430860019920208854FFE7019940229D
:1028E00000208854FFE702A90020087003E002A935
:1028F00002200870FFE702A8007803B010BD84B082
:102900000290019102984121405C20283FD1FFE7CD
:10291000FFE702984021405C012804D1FFE703A9AA
:102920000220087037E00299402201208854FFE716
:10293000FFE7029941222420885402980168086820
:10294000012398430860029800680068009000988E
:102950000F21090288430090019801020098084362
:102960000090009802990968086002980168086858
:1029700018430860029920208854FFE702994022FA
:1029800000208854FFE703A90020087003E003A992
:1029900002200870FFE703A8007804B0704781B0F8
:1029A000009001B0704783B0029001A801706846A2
:1029B000028003B0704780B584B00390039800682C
:1029C00080690290039800680068019002A840782E
:1029D000C007002810D0FFE701A80078C009002830
:1029E0000AD0FFE7039A516C012001435164039917
:1029F00009680002C861FFE702A840780421084086
:102A00008008002811D0FFE701A80078C00900283D
:102A10000BD0FFE70399486C0822104348640398E1
:102A2000016801208002C861FFE702A84078022106
:102A300008404008002811D0FFE701A80078C0092D
:102A400000280BD0FFE70399486C0222104348642A
:102A50000398016801204002C861FFE70398406CB9
:102A60000090684600780B21084205D0FFE70398E4
:102A7000009902F0EFFAFFE704B080BD80B584B0A2
:102A800003900398006880690290039800680068CA
:102A900001900398406B002806D0FFE70398436B32
:102AA0000299019A9847FFE704B080BD81B0009079
:102AB00001B0704780B582B000900098002804D122
:102AC000FFE701A90120087074E000984121405CF3
:102AD000002808D1FFE70099402200208854009880
:102AE00000F090FBFFE700994122242088540098D1
:102AF00001680868012290430860009948680F2324
:102B00001B06984309680861009801688868D20329
:102B1000904388600098C068012808D1FFE70099B9
:102B200088680122D20310430968886007E0009991
:102B3000886821229202104309688860FFE70098A4
:102B4000C068022806D1FFE7009801680120C00292
:102B50004860FFE7009801684868184A10434860D9
:102B600000980168C8680122D3039843C86000999F
:102B700008694B6918438B691B0218430968C860D0
:102B80000099C8690B6A18430968086000980168D1
:102B9000086810430860009900204864009A4123A7
:102BA0002021D1540099086300994222885401A938
:102BB0000870FFE701A8007802B080BD0080000225
:102BC00081B0009001B0704781B0009001B07047B3
:102BD00081B0009001B0704781B0009001B07047A3
:102BE00081B0009001B07047B0B58AB0044610982B
:102BF0000F980E9D089407AC218006A90A8005A9AC
:102C00000B8004A9088008984121405C202800D04E
:102C100012E10E98002805D0FFE704A800880028DC
:102C200007D1FFE7089A01204102516409A9087001
:102C300006E1FFE708984021405C012804D1FFE746
:102C400009A902200870FBE008994022012088545D
:102C5000FFE7FFE7FFF702FE039008980399009152
:102C60000122D103192303F0DAFB002804D0FFE787
:102C700009A901200870E3E0089941222220885424
:102C800008994222402088540899002048640E99EF
:102C9000089A51620499089A5185089948630898DE
:102CA00007A9098806AA128805AB1B88109C039DFA
:102CB0000195009403F06CF800280AD0FFE7FFE7C5
:102CC0000899402200208854FFE709A901200870D4
:102CD000B6E00898408D000A00280FD0FFE7089959
:102CE000FF200885089807A909882822825CAD4B37
:102CF000009301231B0603F041FB0FE00898408D71
:102D000008990885089807A909882822825CA54B9C
:102D1000009301235B0603F031FBFFE7FFE7089810
:102D2000109B039900910421002203F078FB0028F6
:102D300004D0FFE709A90120087081E00898006825
:102D4000406A0899496A08700899486A401C4862B4
:102D50000899088D401E08850899488D401E4885B1
:102D60000898408D00283AD0FFE70898008D002889
:102D700035D1FFE70898109B03990091802100222C
:102D800003F04DFB002804D0FFE709A901200870DB
:102D900056E00898408D000A00280FD0FFE70899F8
:102DA000FF200885089807A909882822825C00234B
:102DB000009301231B0603F0E1FA0FE00898408D11
:102DC00008990885089807A909882822825C0023A9
:102DD000009301235B0603F0D1FAFFE7FFE7FFE76B
:102DE0000898408D00289AD1FFE708981099039A17
:102DF00003F05CFB002804D0FFE709A9012008705C
:102E00001EE0089801682020C86108990A68516886
:102E1000FB4B19405160089941228854089942227D
:102E200000208854FFE70899402200208854FFE7DB
:102E300009A90020087003E009A902200870FFE733
:102E400009A800780AB0B0BDB0B58AB004460F98A2
:102E50000E9D089407AC218006A90A8005A90B8065
:102E600004A9088008984121405C202800D08DE00A
:102E70000E98002805D0FFE704A80088002807D195
:102E8000FFE7089A01204102516409A9087081E016
:102E900008980068806980B2C00B012804D1FFE760
:102EA00009A90220087075E0FFE708984021405CFE
:102EB000012804D1FFE709A9022008706AE00899F7
:102EC000402201208854FFE7FFE7FFF7C7FC03908B
:102ED000089941222220885408994222402088548F
:102EE0000899002048640E98089948620498089947
:102EF000488508992948C86208992948486308986C
:102F0000408D000A002807D0FFE70899FF200885B8
:102F100001200006029007E00898408D0899088576
:102F2000012040060290FFE7089807A9098806AA31
:102F3000128805AB1B88039C01941924009402F0AD
:102F400027FF00280AD0FFE7FFE70899402200206A
:102F50008854FFE709A9012008701BE0089807A919
:102F600009882822825C029B0E4C009403F006FA2A
:102F7000FFE70899402200208854FFE708980221C3
:102F800001F03CFF09A90020087003E009A9022014
:102F90000870FFE709A800780AB0B0BD0000FFFF85
:102FA000F55A000800240080B0B58AB00446109895
:102FB0000F980E9D089407AC218006A90A8005A9E8
:102FC0000B8004A9088008984121405C202800D08B
:102FD0000EE10E98002805D0FFE704A8008800281D
:102FE00007D1FFE7089A01204102516409A908703E
:102FF00002E1FFE708984021405C012804D1FFE787
:1030000009A902200870F7E008994022012088549D
:10301000FFE7FFE7FFF722FC039008980399009170
:103020000122D103192303F0FAF9002804D0FFE7A5
:1030300009A901200870DFE0089941222120885465
:1030400008994222402088540899002048640E992B
:10305000089A51620499089A51850899486308981A
:1030600007A9098806AA128805AB1B88109C039D36
:103070000195009402F0E8FE00280AD0FFE7FFE780
:103080000899402200208854FFE709A90120087010
:10309000B2E00898408D000A00280FD0FFE7089999
:1030A000FF200885089807A909882822825C002348
:1030B000009301231B0603F061F90FE00898408D8F
:1030C00008990885089807A909882822825C0023A6
:1030D000009301235B0603F051F9FFE7FFE708982F
:1030E0001099039A03F028FA002804D0FFE709A9F1
:1030F0000120087080E00899486A007809688862B1
:103100000899486A401C48620899488D401E4885C5
:103110000899088D401E08850898408D00283AD0EF
:10312000FFE70898008D002835D1FFE70898109B2D
:10313000039900918021002203F071F9002804D046
:10314000FFE709A90120087056E00898408D000AA1
:1031500000280FD0FFE70899FF200885089807A9E5
:1031600009882822825C0023009301231B0603F0B8
:1031700005F90FE00898408D08990885089807A977
:1031800009882822825C0023009301235B0603F058
:10319000F5F8FFE7FFE7FFE70898408D00289ED18C
:1031A000FFE708981099039A03F080F9002804D0EB
:1031B000FFE709A9012008701EE008980168202097
:1031C000C86108990A6851680D4B19405160089907
:1031D000412288540899422200208854FFE7089928
:1031E000402200208854FFE709A90020087003E06E
:1031F00009A902200870FFE709A800780AB0B0BD4D
:1032000000E800FE80B58AB0099000200890079081
:1032100006900590049009980068184988422AD1C0
:10322000FFE7FFE71648026802210A4302600068D0
:10323000084003900398FFE70320810204911221C4
:1032400005910021019106910790062008900D48F4
:1032500004A9FFF763F9019A4549086801239B0512
:103260001843086018200290114600F08EF802986A
:1032700000F080F8FFE70AB080BDC046005800406B
:103280002C1002400004005081B0009001B0704743
:1032900081B0009001B070472C480278024908685C
:1032A000801808607047C0466C02002080B582B06C
:1032B00001A9002008700A4A1168402319431160CF
:1032C00000F010F8002804D0FFE701A901200870E1
:1032D00002E000F03FF8FFE701A8007802B080BDEF
:1032E0000020024080B584B0029017480068019029
:1032F000164801787D20C000FDF7A4F8014601982A
:10330000FDF7A0F801F026F9002804D0FFE703A993
:103310000120087014E00298032809D8FFE70299F9
:103320000022D04300F031F802980949086003E018
:1033300003A90120087003E003A900200870FFE73B
:1033400003A8007804B080BD04000020160000200F
:103350001800002005490868012210430860D04980
:1033600008681207104308607047C04634100240D6
:103370003810024080B582B0014601A801700021DA
:10338000405604F0AFF902B080BD80B584B003466A
:1033900003A803700291019200214056029904F0A3
:1033A000B7F904B080BD000080B586B0049001A9D3
:1033B000002008700498006820210840202806D0CA
:1033C000FFE7049840780007002800D4F1E0049853
:1033D00000788006002801D5FFE7FFE704984078D1
:1033E0000007002801D5FFE7FFE7AD480068C000EF
:1033F000002809D4FFE7AA4A1168012003071943EE
:10340000116001A90870FFE7A6480068C005002800
:103410001DD4FFE7A3490868012212021043086087
:10342000FFF71CFA0390FFE79E480068C0050028DC
:103430000CD4FFE7FFF712FA0399401A652804D36A
:10344000FFE705A90320087025E1EDE7FFE79648AF
:10345000006803210A051040029002980499496807
:103460001140884209D1FFE7029804998968032234
:1034700012051140884214D0FFE7049840680321E8
:103480000904084088420BD1FFE7874800688003A1
:10349000002804D5FFE705A901200870FBE0FFE73D
:1034A000FFE782480068032109040840029002985F
:1034B000002851D0FFE702980499496803221204BA
:1034C0001140884207D0FFE7049800682021084097
:1034D00020280FD0FFE7029804998968032212047C
:1034E0001140884238D0FFE7049840780007002850
:1034F00032D5FFE76D490868032212049043029019
:1035000008680122D20410430860086890430860EC
:103510000298086002A84078C00700281BD0FFE787
:10352000FFF79CF90390FFE760480068012149021A
:103530000840400A00280DD1FFE7FFF78FF90399F3
:10354000401A5C49884204D3FFE705A903200870AC
:10355000A1E0E9E7FFE7FFE7FFE7FFE7049840683E
:1035600003210904084088420BD1FFE74E4908684F
:10357000032213059843049A52681A408018086081
:10358000FFE7FFE704984268032000040240474930
:10359000086810430860FFE701A80078012807D1F8
:1035A000FFE73F4908680122120790430860FFE7E0
:1035B000FFE704980078C007002809D0FFE73C49DE
:1035C000086803229043049AD26810430860FFE71A
:1035D000049800788007002809D5FFE73449086877
:1035E0000C229043049A126910430860FFE7049884
:1035F0000078400700280AD5FFE72D490868032214
:1036000092029043049A526910430860FFE70498BD
:103610000078000700280AD5FFE72549086803223B
:1036200012039043049A926910430860FFE70498DC
:103630004078C00700280AD0FFE71D490868032228
:1036400012049043049AD26910430860FFE704987B
:103650000078400600280AD5FFE7154908680122CE
:1036600092069043049A526A10430860FFE7049858
:103670000078000600280AD5FFE70D4908680322F4
:1036800092049043049A126A10430860FFE705A968
:1036900000200870FFE705A8007806B080BDC0468E
:1036A00038100240007000400010024050100240EC
:1036B0004C1002408913000080B586B0049003913D
:1036C0000498002804D1FFE705A90120087062E1F1
:1036D0000398B349096801221140884221D9FFE7C4
:1036E000AF49086801229043039A10430860FFF72E
:1036F000B5F80290FFE7AA48006801210840039945
:1037000088420DD0FFE7FFF7A9F80299401AA549B2
:10371000884204D3FFE705A9032008703BE1EAE7EC
:10372000FFE7049800788007002809D5FFE7B14932
:103730000868F0229043049A926810430860FFE7FB
:1037400004980078C007002800D1BCE004984068C5
:1037500002280ED1FFE7F348006801214904084020
:10376000400C002804D1FFE705A90120087012E1F0
:1037700034E00498406803280ED1FFE7E948006868
:10378000012149060840400E002804D1FFE705A9A1
:1037900001200870FFE020E00498406801280DD166
:1037A000FFE7E0480068042108408008002804D1B1
:1037B000FFE705A901200870EDE00DE0D948006899
:1037C000012149020840400A002804D1FFE705A969
:1037D00001200870DFE0FFE7FFE7FFE7CF49086857
:1037E00003229043049A526810430860FFF736F8AA
:1037F000029004984068022816D1FFE7FFE7C74807
:1038000000680C21084008280DD0FFE7FFF726F8D4
:103810000299401A6349884204D3FFE705A90320AF
:103820000870B8E0EBE74DE004984068032816D133
:10383000FFE7FFE7B94800680C2108400C280DD0CD
:10384000FFE7FFF70BF80299401A5649884204D364
:10385000FFE705A9032008709DE0EBE731E004983D
:103860004068012816D1FFE7FFE7AC4800680C214B
:10387000084004280DD0FFE7FEF7F0FF0299401A38
:103880004849884204D3FFE705A90320087082E075
:10389000EBE715E0FFE7A14800680007800F00286C
:1038A0000DD0FFE7FEF7DAFF0299401A3D49884242
:1038B00004D3FFE705A9032008706CE0EBE7FFE7FE
:1038C000FFE7FFE7FFE70398354909680122114048
:1038D000884221D2FFE73249086801229043039AC7
:1038E00010430860FEF7BAFF0290FFE72C4800681B
:1038F00001210840039988420DD0FFE7FEF7AEFF93
:103900000299401A2749884204D3FFE705A90320FA
:10391000087040E0EAE7FFE70498007840070028D5
:103920000AD5FFE77D490868072212029043049AEE
:10393000D26810430860FFE7049800780007002869
:103940000BD5FFE7754908680722D2029043049A15
:103950001269D20010430860FFE700F04FF86F498A
:103960000968C9B20A091049895CC840124908604F
:103970000E480068FFF7B6FC014601A80170007808
:10398000002804D0FFE7019805A9087003E005A905
:1039900000200870FFE705A8007806B080BDC0468B
:1039A0000020024089130000C87B00081800002096
:1039B000014800687047C0460400002080B5FFF74A
:1039C000F7FF564909680722120211400A0A0A49FC
:1039D000895CC84080BDC04680B5FFF7E9FF4F490C
:1039E00009680722D2021140CA0A0349895CC8400B
:1039F00080BDC0460C100240D87B000880B58AB05C
:103A000046480068099009980C21084003900C284A
:103A100075D80398810001A040588746FD3A0008F8
:103A2000FF3A0008FF3A0008FF3A0008513A000840
:103A3000FF3A0008FF3A0008FF3A00086B3A000816
:103A4000FF3A0008FF3A0008FF3A0008713A000800
:103A500034480068C006002803D5FFE733480490C7
:103A600002E031480490FFE755E03148049052E00D
:103A700009980F2189040840810C2948405C08906E
:103A80000998032189050840800D401C07902348B0
:103A90000068C00300280DD5FFE70898244A0023DA
:103AA00002931946FCF7F8FB029B079AFCF70CFC03
:103AB000069020E01B480068C00600280DD5FFE7EF
:103AC00008981A4A002301931946FCF7E5FB019B6D
:103AD000079AFCF7F9FB06900CE00898124A0023BD
:103AE00000931946FCF7D8FB009B079AFCF7ECFB08
:103AF0000690FFE7FFE7069804900CE0FFE70D480B
:103B0000006880B2400B05900598411C0120884058
:103B1000C0030490FFE704980AB080BD0C10024077
:103B2000E07B0008001002400024F40000093D0082
:103B300000127A000410024010B58AB0089008986C
:103B4000002805D1FFE709A90120087000F015FC45
:103B5000FD4801680C22114004910068012109040C
:103B60000840039008980078C007002800D18DE035
:103B7000049808280AD0FFE704980C2819D1FFE719
:103B8000039801210904884213D1FFE7EF48006838
:103B9000012149040840400C002809D0FFE708989B
:103BA0004068002804D1FFE709A901200870E4E378
:103BB0006BE0FFE70898406801210904884207D1BB
:103BC000FFE7E2490868012212041043086021E07F
:103BD000089840680521090488420BD1FFE7DB49BA
:103BE000086801229304184308600868120410430F
:103BF00008600EE0D5490868012213049843086064
:103C0000086818400290029808689204904308607F
:103C1000FFE7FFE7FFE70898406800281AD0FFE7B2
:103C2000FEF71CFE0790FFE7C84800680121490421
:103C30000840400C00280CD1FFE7FEF70FFE079963
:103C4000401A652804D3FFE709A90320087094E30C
:103C5000EAE719E0FEF702FE0790FFE7BB480068BD
:103C6000012149040840400C00280CD0FFE7FEF772
:103C7000F5FD0799401A652804D3FFE709A9032039
:103C800008707AE3EAE7FFE7FFE7FFE708980078C4
:103C90008007002800D4A8E00898C068069006A80D
:103CA00000788006002809D5FFE7A84A106820217F
:103CB00008431060069888430690FFE7049804289C
:103CC00008D0FFE704980C2841D1FFE703980028AB
:103CD0003DD1FFE79D480068042108408008002886
:103CE00008D0FFE70698002804D1FFE709A90120C2
:103CF000087042E3964908681F2212029043089A0E
:103D00001269120210430860904908680922904322
:103D1000069A10430860FFE7FFF770FE8A490968BA
:103D2000C9B20A098B49895CC8408B4908608B4835
:103D30000068FFF7D7FA014605A80170007800284F
:103D400004D0FFE7059809A9087016E34CE006982F
:103D500000282AD0FFE77D49086809229043069A87
:103D600010430860FEF77AFD0790FFE77748006888
:103D700004210840800800280CD1FFE7FEF76EFD03
:103D80000799401A032804D3FFE709A90320087004
:103D9000F3E2EBE76E4908681F2212029043089A8B
:103DA00012691202104308601DE068490868012288
:103DB00090430860FEF752FD0790FFE763480068F4
:103DC00004210840800800280CD0FFE7FEF746FDDC
:103DD0000799401A032804D3FFE709A903200870B4
:103DE000CBE2EBE7FFE7FFE7FFE708980078C006C4
:103DF000002800D4A1E00498002845D1FFE75348EB
:103E00000068012149020840400A002809D0FFE764
:103E10000898C069002804D1FFE709A901200870AB
:103E2000ABE24B490868072252039043089A526A52
:103E3000104308600868FF2212069043089A126A2D
:103E40001206801808600898406A400B411C012047
:103E50008840C0033C490968C9B20A093D49895CE8
:103E6000C8403D4908603D480068FFF73BFA0146FD
:103E700005A801700078002804D0FFE7059809A97B
:103E800008707AE2FFE757E00898C069002832D04E
:103E9000FFE72E4908680122120210430860FEF76E
:103EA000DDFC0790FFE7294800680121490208402E
:103EB000400A00280CD1FFE7FEF7D0FC0799401A12
:103EC000032804D3FFE709A90320087055E2EAE7B5
:103ED0001F490868072252039043089A526A104308
:103EE00008600868FF2212069043089A126A1206B8
:103EF000801808601FE015490868012212029043EB
:103F00000860FEF7ABFC0790FFE71048006801214E
:103F100049020840400A00280CD0FFE7FEF79EFC4B
:103F20000799401A032804D3FFE709A90320087062
:103F300023E2EAE7FFE7FFE7FFE7089800780007DA
:103F400000284FD50CE0C0460C1002400010024083
:103F500004100240C87B0008040000201800002064
:103F60000898406900281ED0FFE7FD490868012233
:103F700010430860FEF772FC0790FFE7F8480068FE
:103F800002210840400800280CD1FFE7FEF766FC3C
:103F90000799401A032804D3FFE709A903200870F2
:103FA000EBE1EBE71DE0F949086801229043086066
:103FB000FEF754FC0790FFE7F44800680221084030
:103FC000400800280CD0FFE7FEF748FC0799401A8C
:103FD000032804D3FFE709A903200870CDE1EBE72C
:103FE000FFE7FFE7089800784007002800D4BBE00F
:103FF00001A900200870E6480068C000002809D424
:10400000FFE7E34A1168012003071943116001A982
:104010000870FFE7DF480068C00500281DD4FFE7EF
:10402000DC4908680122120210430860FEF716FC02
:104030000790FFE7D7480068C00500280CD4FFE7C9
:10404000FEF70CFC0799401A652804D3FFE709A97D
:104050000320087091E1EDE7FFE7FFE7089880682B
:1040600001210902884207D1FFE7C84908680122F7
:104070001202104308602EE00898806800280BD1D7
:10408000FFE7C249086801221302984308600868E4
:104090009202904308601DE008988068052109029B
:1040A00088420BD1FFE7B9490868012293021843FF
:1040B000086008681202104308600AE0B349086803
:1040C0000122130298430860086892029043086036
:1040D000FFE7FFE7FFE7FFE70898806800281BD0AD
:1040E000FFE7FEF7BBFB0790FFE7A8480068012148
:1040F00049020840400A00280DD1FFE7FEF7AEFB59
:104100000799401AA449884204D3FFE709A903206C
:10411000087032E1E9E71AE0FEF7A0FB0790FFE73D
:104120009A480068012149020840400A00280DD041
:10413000FFE7FEF793FB0799401A9749884204D39B
:10414000FFE709A90320087017E1E9E7FFE701A8E5
:104150000078012807D1FFE78D490868012212077E
:1041600090430860FFE7FFE7089800788006002882
:1041700054D5FFE708988069002829D0FFE7FFE7BA
:1041800086490868012210430860EF490868104317
:10419000086083490868520310430860FFE7FEF790
:1041A0005DFB0790FFE77D4800680221084040085A
:1041B00000280CD1FFE7FEF751FB0799401A0328AE
:1041C00004D3FFE709A903200870D6E0EBE724E059
:1041D000FFE7724908680122904308607049086847
:1041E000520390430860FFE7FEF738FB0790FFE7B4
:1041F0006A48006802210840400800280CD0FFE708
:10420000FEF72CFB0799401A032804D3FFE709A9FE
:1042100003200870B1E0EBE7FFE7FFE70898806A4A
:10422000002800D1A5E004980C2872D0FFE7089878
:10423000806A02284CD1FFE7534908680122120620
:1042400090430860FEF70AFB0790FFE74E480068BE
:10425000012149060840400E00280CD0FFE7FEF778
:10426000FDFA0799401A032804D3FFE709A90320A0
:10427000087082E0EAE743490868FD22120490438F
:10428000089BDA6A1C6B22435B6B1A43104308607D
:104290003D4908680122120610430860FEF7DEFA65
:1042A0000790FFE738480068012149060840400EA2
:1042B00000280CD1FFE7FEF7D1FA0799401A03282E
:1042C00004D3FFE709A90320087056E0EAE71FE0DE
:1042D0002D4908680122120690430860FEF7BEFAD5
:1042E0000790FFE728480068012149060840400E72
:1042F00000280CD0FFE7FEF7B1FA0799401A03280F
:1043000004D3FFE709A90320087036E0EAE7FFE7D6
:104310002EE00898806A012804D1FFE709A901204E
:1043200008702AE0174800680390039801210904E7
:1043300008400899C96A884214D1FFE703980F2101
:10434000890408400899096B88420BD1FFE703985C
:104350000321890508400899496B884206D001E08D
:104360005010024009A90120087006E0FFE7FFE7AE
:10437000FFE709A900200870FFE709A800780AB044
:1043800010BDC0460C100240001002405010024008
:1043900038100240007000408913000008100240ED
:1043A0002000014070B584B002900298002804D12A
:1043B000FFE703A90120087071E00298406A002815
:1043C0000DD1FFE70298406841218900884201D160
:1043D000FFE703E002990020C861FFE705E00299CA
:1043E0000020086102994861FFE702990020886275
:1043F00002985121405C002808D1FFE70299502221
:1044000000208854029800F04FF8FFE702985123EB
:104410000226C6540298016808684022904308604A
:10442000029A019250684121890008409168212434
:10443000A40221404018D5680121CC022540401932
:1044400015693540401955690D40401995694E026E
:1044500035404019D569382635404019156A8026FF
:1044600035402843956A4E03354028431268106052
:10447000029A508B04252840556A10263540401971
:104480001268506002980268D069A043D061029A15
:1044900000205065029AD15403A90870FFE703A8D1
:1044A000007804B070BD000010B58CB00B900020F7
:1044B0000A9009900890079006900B98006821498F
:1044C00088423CD1FFE720490868012212031043CB
:1044D0000860FFE71D48026801210A430260006886
:1044E000084005900598FFE7FFE718480268022199
:1044F0000A4302600068084004900498FFE7C02067
:10450000069002200090079000200290089003215E
:10451000019109910A900520000706A90391FDF772
:10452000FDFF009B019A02980399082406940793C3
:10453000089009920A900648FDF7F0FFFFE70CB0DB
:1045400010BDC04600300140341002402C10024023
:104550000004005080B582B00190019802F006FB83
:1045600002B080BD85B003900291FFE70398382127
:10457000405C012804D1FFE704A90220087053E041
:104580000399382201208854FFE7FFE70399392275
:1045900002208854039800684068019003980068DE
:1045A000806800900198702188430190029801680A
:1045B000019808430190019803990968486003989D
:1045C000006801218907884212D0FFE7039800683C
:1045D0006E4988420CD0FFE7039800686C49884216
:1045E00006D0FFE7039800686A4988420ED1FFE7CA
:1045F0000098802188430090029841680098084301
:1046000000900098039909688860FFE703993922B0
:1046100001208854FFE70399382200208854FFE7DF
:1046200004A900200870FFE704A8007805B07047CF
:1046300080B582B000900098002804D1FFE701A95E
:104640000120087030E000983921405C002808D132
:10465000FFE70099382200208854009800F028F8DD
:10466000FFE70099392202208854009901C902F01D
:104670000BFB00993E2201208854FFE700993A2263
:104680000120885400993B22885400993C22885488
:1046900000993D228854FFE700993922012088546F
:1046A00001A900200870FFE701A8007802B080BDD2
:1046B00080B582B001900198006801218907884285
:1046C0000FD1FFE7084908680122104308600F2056
:1046D000009000221146FEF758FE0098FEF74AFEB1
:1046E000FFE702B080BDC0463810024083B00190A1
:1046F00001983921405C012804D0FFE702A901207C
:1047000008703EE00199392202208854019802681D
:10471000D06801210843D060019800688907884269
:1047200012D0FFE701980068184988420CD0FFE7D3
:10473000019800681649884206D0FFE70198006892
:104740001449884212D1FFE7019800688068072168
:10475000084000900098062807D0FFE701980168FC
:104760000868012210430860FFE706E0019801682D
:104770000868012210430860FFE702A900200870C2
:10478000FFE702A8007803B07047C046000400406D
:10479000000801400014014080B586B004900391E8
:1047A00002A900200870FFE704983821405C012826
:1047B00004D1FFE705A902200870AEE00499382271
:1047C00001208854FFE7FFE704993922022088542A
:1047D00004980068806801900198772188430190CF
:1047E0000198FF2109028843019001980499096802
:1047F0008860039800680090002875D0FFE7009853
:10480000102871D0FFE7009820286DD0FFE70098AE
:10481000302869D0FFE70098402858D0FFE700987B
:1048200050283AD0FFE70098602843D0FFE700986F
:1048300070280DD0FFE7009801210903884206D0B7
:10484000FFE7009801214903884216D053E056E063
:1048500004980068039B99685A68DB6802F076FA4E
:1048600004980068806801900198772108430190BE
:10487000019804990968886041E004980068039BE6
:1048800099685A68DB6802F061FA049801688868E0
:10489000012292031043886031E004980068039A73
:1048A0005168D26802F082FA04980068502102F040
:1048B00068FA24E004980068039A5168D26802F00C
:1048C0009DFA04980068602102F05BFA17E00498F2
:1048D0000068039A5168D26802F068FA0498006888
:1048E000402102F04EFA0AE0049800680399096832
:1048F00002F047FA03E002A901200870FFE70499DB
:10490000392201208854FFE7049938220020885476
:10491000FFE7029805A90870FFE705A8007806B030
:1049200080BD81B0009001B0704780B582B0019029
:10493000019800680069022108404008002828D03A
:10494000FFE701980068C06802210840400800287D
:104950001ED0FFE7019801680220C0430861019959
:10496000012008760198006880698007002804D03B
:10497000FFE70198FFF7D5FF06E0019800F0D4F8B3
:10498000019800F0D5F8FFE7019900200876FFE7CD
:10499000FFE70198006800690421084080080028AA
:1049A00029D0FFE701980068C0680421084080080A
:1049B00000281FD0FFE7019801680420C043086168
:1049C0000199022008760198006880698005800FAF
:1049D000002804D0FFE70198FFF7A3FF06E0019845
:1049E00000F0A2F8019800F0A3F8FFE70199002079
:1049F0000876FFE7FFE70198006800690821084092
:104A0000C008002828D0FFE701980068C068082186
:104A10000840C00800281ED0FFE701980168082060
:104A2000C043086101990420087601980068C069B4
:104A30008007002804D0FFE70198FFF772FF06E027
:104A4000019800F071F8019800F072F8FFE7019901
:104A500000200876FFE7FFE7019800680069102151
:104A600008400009002829D0FFE701980068C068C5
:104A700010210840000900281FD0FFE701980168B5
:104A80001020C04308610199082008760198006849
:104A9000C0698005800F002804D0FFE70198FFF768
:104AA00040FF06E0019800F03FF8019800F040F860
:104AB000FFE7019900200876FFE7FFE7019800680B
:104AC0000069C007002811D0FFE701980068C0689E
:104AD000C007002809D0FFE7019801680120C04302
:104AE0000861019800F028F8FFE7FFE701980068E7
:104AF0000069402108408009002813D0FFE7019891
:104B00000068C068402108408009002809D0FFE7FC
:104B1000019801684020C0430861019800F03EF808
:104B2000FFE7FFE702B080BD81B0009001B07047A1
:104B300081B0009001B0704780B582B001900198BB
:104B4000006801218907884220D1FFE7674801F00A
:104B500075FD01460E48016000680E4902F06EFEC8
:104B6000002803D1FFE701F041FF0EE0084800688C
:104B7000094902F063FE002803D1FFE7FDF712FAAE
:104B800002E0FDF7CDF9FFE7FFE7FFE702B080BDE8
:104B9000680200200000C8410000A04181B00090E0
:104BA00001B0704780B582B000900098002804D111
:104BB000FFE701A90120087048E0009880690028FB
:104BC00001D0FFE700E0FFE70098806F002808D1E0
:104BD000FFE70099742200208854009800F03AF80A
:104BE000FFE700992420886700980168086801227F
:104BF00090430860009802F02BFA012804D1FFE7E7
:104C000001A90120087021E00098406A002804D022
:104C1000FFE7009802F01CF9FFE700980168486878
:104C20000922D202904348600098016888682A22CD
:104C3000904388600098016808680122104308606A
:104C4000009802F0B3F901A90870FFE701A8007805
:104C500002B080BD80B588B0079000200690059016
:104C6000049003900290079800681349884221D16C
:104C7000FFE7124908680122520410430860FFE769
:104C80000F48026801210A43026000680840019051
:104C90000198FFE70C20029002200390002004906E
:104CA00003200590042006900520000702A9FDF7C7
:104CB00035FCFFE708B080BD0044004038100240DA
:104CC0002C100240FFE7FEE780B5084800688069C5
:104CD0004005400F002804D0FFE70448FDF76BFEB5
:104CE00003E00248FDF7CAFEFFE780BDF4000020A4
:104CF00080B582B001900198806A00900098806B26
:104D0000002805D0FFE70098816B00208863FFE74B
:104D10000098C06B002805D0FFE70098C16B002009
:104D20008863FFE7009801F051FB02B080BD83B0BB
:104D3000029001A80180002100910088C00700288E
:104D400012D0FFE7009842210843009002984121C9
:104D5000405C28210840282805D0FFE70098B021B2
:104D600008430090FFE7FFE701A8008880070028BC
:104D700012D5FFE700984421084300900298412192
:104D8000405C28210840282805D0FFE70098B02182
:104D900008430090FFE7FFE701A80088000400280F
:104DA00005D5FFE70098B82108430090FFE701A868
:104DB0000088102805D1FFE7009890210843009053
:104DC000FFE701A80088202805D1FFE700982021EF
:104DD00008430090FFE701A80088402805D1FFE7BD
:104DE0000098402108430090FFE7009A029801686C
:104DF00008689043086003B07047000083B00290D9
:104E000001A80180002000900298406B334988423D
:104E100006D0FFE70298406B314988422AD1FFE76C
:104E200001A800880004002805D5FFE70098B821F4
:104E300008430090FFE701A80088102805D1FFE78C
:104E40000098902108430090FFE701A800882028DF
:104E500005D1FFE70098602108430090FFE701A813
:104E60000088402805D1FFE70098402108430090C2
:104E7000FFE72BE001A800880004002805D5FFE724
:104E80000098B82108430090FFE701A80088C007F8
:104E9000002805D0FFE70098F22108430090FFE7C3
:104EA00001A800888007002805D5FFE70098F421B5
:104EB00008430090FFE701A80088202805D1FFE7FC
:104EC0000098202108430090FFE7FFE7009A02982E
:104ED000016808681043086003B07047D1580008A3
:104EE000055F000881B00090009800688069022189
:104EF00008404008002805D0FFE70098016800201E
:104F00008862FFE7009800688069C007002807D121
:104F1000FFE7009801688869012210438861FFE774
:104F200001B0704780B586B0059004910598412185
:104F3000405C2821084028287CD1FFE705980068BC
:104F40008069012109040840000C03A90870059834
:104F5000006880697F2149040840000C02A908808C
:104F60000598006880683A49084001A908800598BA
:104F70000068C068FE210840694608800598C0683E
:104F8000022843D1FFE702A80088062210400199B9
:104F9000C9091140884222D1FFE7019802A908807F
:104FA0000599886C401C88640598806C022815D18E
:104FB000FFE7059900208864059801680820C8610A
:104FC000FFE70599402200208854FFE7059803A9D0
:104FD000097802AA1288FDF7E6FCFFE715E00098C1
:104FE00002A9088005980121C903FFF7A0FEFFE789
:104FF0000599402200208854FFE7059803A9097805
:1050000002AA1288FDF7CFFCFFE712E00598012104
:10501000C903FFF78CFEFFE7059940220020885462
:10502000FFE7059803A9097802AA1288FDF7BBFCDF
:10503000FFE70AE0059801680820C861FFE70599C5
:10504000402200208854FFE7FFE706B080BDC0463D
:10505000FF03000080B584B00390029103984121C2
:10506000415C01A80170039A42230021D154039BA3
:10507000F34ADA62039A5185029B039A516C1943F1
:105080005164007828280AD0FFE701A80078292871
:1050900005D0FFE701A800782A280CD1FFE7039884
:1050A0000321FFF744FE03994122282088540399E5
:1050B0004E48486312E003987449FFF738FE03989E
:1050C0004121405C602805D0FFE703994122202060
:1050D0008854FFE7039900204863FFE70398006BBB
:1050E00000900398806B00283AD0FFE700981128C1
:1050F00004D0FFE70098212832D1FFE70398006829
:1051000000684004002808D5FFE703980168086894
:105110000122920390430860FFE70398806BFDF73C
:10512000F5F9012817D0FFE70398816B30488863B1
:10513000FFE70399402200208854FFE70398806B23
:10514000FDF7A6F9002805D0FFE70398806B816B77
:105150008847FFE703E0039801F038F9FFE743E0F1
:105160000398C06B00283AD0FFE70098122804D0BB
:10517000FFE70098222832D1FFE703980068006813
:105180000004002808D5FFE7039801680868012299
:10519000D20390430860FFE70398C06BFDF7B6F9B0
:1051A000012817D0FFE70398C16B11488863FFE718
:1051B0000399402200208854FFE70398C06BFDF755
:1051C00067F9002805D0FFE70398C06B816B88471B
:1051D000FFE703E0039801F0F9F8FFE703E0039825
:1051E00001F0F4F8FFE7FFE704B080BD3561000887
:1051F000F14C000880B582B001900091019990486F
:10520000C862019900200863019A41232021D154EA
:105210000199422288540199486368460078042124
:105220000840800800281ED0FFE701980068406A07
:105230000199496A08700199486A401C48620198BE
:10524000008D00280ED0FFE70199088D401E0885CB
:105250000199488D401E48850199486C04221043ED
:105260004864FFE7FFE701980849FFF760FD0198F0
:1052700001681020C861FFE701994022002088548E
:10528000FFE70198FDF79CFC02B080BD03800000A1
:1052900080B586B005900491049802900598016845
:1052A0002020C86105984121405C212808D1FFE7F2
:1052B00005980121FFF73BFD0599112008630FE0D8
:1052C00005984121405C222808D1FFE7059802217A
:1052D000FFF72DFD05991220086300E0FFE7FFE7C7
:1052E000059801684868554A1040486005990020B3
:1052F000486305995248C86202A800781021084006
:10530000000900280AD0FFE7059801681020C8614D
:105310000599486C042210434864FFE70598412131
:10532000405C60280FD1FFE702A800780421084004
:105330008008002807D0FFE705980068406AC0B2DF
:1053400001900198FFE70598FFF7CCFD0598406CA8
:10535000039005984121405C602804D0FFE7039842
:10536000002805D0FFE70598416CFFF773FE62E067
:1053700005984121405C21282AD1FFE70599412267
:105380002020885405990020086305984221405C3C
:1053900040280ED1FFE70599422200208854FFE7FC
:1053A0000599402200208854FFE70598FDF718FC76
:1053B0000DE00599422200208854FFE7059940221C
:1053C00000208854FFE70598FDF702FCFFE731E075
:1053D00005984121405C22282AD1FFE70599412206
:1053E0002020885405990020086305984221405CDC
:1053F00040280ED1FFE70599422200208854FFE79C
:105400000599402200208854FFE70598FDF7E4FB4A
:105410000DE00599422200208854FFE705994022BB
:1054200000208854FFE70598FDF7CEFBFFE700E07A
:10543000FFE7FFE7FFE706B080BDC04600E800FEDB
:105440000000FFFF80B582B0019001994222002048
:10545000885401984121405C212818D1FFE7019927
:1054600041222020885401991120086301990020CD
:10547000486301980121FFF75AFCFFE70199402298
:1054800000208854FFE70198FDF7A2FB17E001997F
:10549000412220208854019912200863019900209C
:1054A000486301980221FFF742FCFFE7019940227F
:1054B00000208854FFE70198FDF786FBFFE702B064
:1054C00080BD000080B586B0059004910598006805
:1054D000006803900498029005984121415C01A85E
:1054E000017005990A682021D1610078212805D032
:1054F000FFE701A80078292808D1FFE705987C4933
:10550000FFF715FC05992120086313E001A8007836
:10551000222805D0FFE701A800782A2808D1FFE754
:1055200005987249FFF703FC05992220086300E003
:10553000FFE7FFE70598016848680122D20310439E
:105540004860059801684868E04A1040486005983E
:10555000FFF7C8FC03A840784021084080090028D4
:1055600014D0FFE705980168086801229203904370
:1055700008600598806B002807D0FFE70598806BCE
:105580000068406805994885FFE71BE003A840785C
:10559000C009002814D0FFE70598016808680122B7
:1055A000D203904308600598C06B002807D0FFE73E
:1055B0000598C06B0068406805994885FFE700E0E2
:1055C000FFE7FFE702A800780421084080080028D0
:1055D0001DD0FFE7029804218843029005980068D7
:1055E000406A0599496A08700599486A401C4862F2
:1055F0000598008D002809D0FFE70599088D401E09
:1056000008850599488D401E4885FFE7FFE7059806
:10561000408D002806D0FFE70599486C042210430E
:105620004864FFE7059942220020885405994863A1
:105630000598406C002810D0FFE70598416CFFF7F3
:1056400009FD05984121405C282805D1FFE7059810
:105650000299FFF7CFFDFFE746E00598C06A2549AC
:10566000884217D0FFE7059800F046F805992148D1
:10567000C8620599412220208854059900200863BA
:10568000FFE70599402200208854FFE70598FDF7C1
:1056900097FA28E005984121405C222811D1FFE7C4
:1056A0000599412220208854059900200863FFE7CE
:1056B0000599402200208854FFE70598FDF7E4FD96
:1056C00010E00599412220208854059900200863A4
:1056D000FFE70599402200208854FFE70598FDF771
:1056E000D7FDFFE7FFE7FFE706B080BD02800000BF
:1056F000018000000000FFFF80B582B0019001989A
:105700000068006800900199422200208854684691
:105710004078402108408009002808D0FFE7019820
:105720000168086801229203904308600FE0684610
:105730004078C009002808D0FFE701980168086890
:105740000122D2039043086000E0FFE7FFE70198E1
:105750004121405C292815D1FFE7019941222820E9
:10576000885401992120086301980121FFF7DFFA8D
:10577000FFE70199402200208854FFE70198FDF7D8
:1057800087FD1CE001984121405C2A2815D1FFE7E4
:105790000199412228208854019922200863019808
:1057A0000221FFF7C4FAFFE7019940220020885444
:1057B000FFE70198FDF768FD00E0FFE7FFE702B0B3
:1057C00080BD000080B586B00490039102920498D9
:1057D0000068806910210840000901286DD1FFE7A9
:1057E000049800684068012149060840884208D0B2
:1057F000FFE704980168486801229203104348605B
:10580000FFE7FFE70498006880692021084040090D
:10581000002829D1FFE70398401C002823D0FFE788
:10582000FDF71CF80299401A0399884204D8FFE753
:105830000398002816D1FFE7049A516C20200143F9
:1058400051640499412288540499422200208854CA
:10585000FFE70499402200208854FFE705A90120B2
:1058600008702EE0FFE7CDE7049801681020C861BA
:105870000498016820200190C8610498FFF732FB6A
:10588000019804990A685168104B19405160049AB4
:10589000516C04231943516404994122885404999A
:1058A000422200208854FFE70499402200208854B7
:1058B000FFE705A90120087003E005A90020087092
:1058C000FFE705A8007806B080BDC04600E800FEEE
:1058D00010B588B0069005910492FFE70698402124
:1058E000405C012804D1FFE707A902200870FBE013
:1058F0000699402201208854FFE7FFE705A80078B9
:10590000102108400009002819D0FFE704A80078FA
:10591000102108400009002811D0FFE7069801680F
:105920001020C8610699486C042210434864069808
:105930002021FFF763FA0698FFF7D4FACAE005A81A
:105940000078C009002874D0FFE704A8007840213F
:105950000840800900286CD0FFE7069801680868B5
:105960004022904308600698408D00284DD0FFE704
:105970000698006840685E49084003A908800698B8
:10598000408D000A002807D0FFE70699FF20088510
:1059900001200006029012E00698408D06990885C5
:1059A0000698C06AF849884204D0FFE70698C06AA2
:1059B000029003E0012040060290FFE7FFE706980F
:1059C00003A909882822825C029B0024009400F02D
:1059D000D5FC06990A8D488D801A48850698412184
:1059E000405C222808D1FFE7069801680868012278
:1059F000D2031043086007E0069801680868012296
:105A0000920310430860FFE712E0069800684068C0
:105A1000012149060840884204D0FFE70698FFF7B5
:105A200011FD04E006984021FFF714FBFFE7FFE7B4
:105A30004FE005A80078402108408009002830D0B8
:105A4000FFE704A80078402108408009002828D0FA
:105A5000FFE70698408D00281DD1FFE706980068F3
:105A60004068012149060840884213D0FFE70698A4
:105A7000C06AC549884208D1FFE7069801684868AE
:105A8000012292031043486003E00698FFF7DAFC16
:105A9000FFE7FFE704E006984021FFF7DBFAFFE7A6
:105AA00016E005A8007820210840400900280DD004
:105AB000FFE704A80078202108404009002805D00D
:105AC000FFE706980599FFF7E3FB00E0FFE7FFE734
:105AD000FFE7FFE7FFE70699402200208854FFE731
